:1000000003308A001B2B0000EF210000EF210000CD
:10001000C42720274410301D0001C4272027441086
:10002000311D000083160611831206118316880104
:1000300083122508880083160610831206142030C8
:10004000F700F70B212824280000831606108312DE
:1000500006102030F700F70B2B282E280000080090
:100060002530840083130008031943280630F80064
:10007000F701F70B3928F80B38287B30F700F70B1E
:100080003F28800B362808008316061083120610BE
:1000900083160611831206118316861083128610AA
:1000A0003830A50012200130A50030200F30A50007
:1000B00012200130A50012200230A50030200630A9
:1000C000A50012208A110A12362B831606118312FC
:1000D00006158316880183122808880083160610E7
:1000E000831206142030F700F70B742877280000DD
:1000F00083160610831206102030F700F70B7E28B7
:100100008128000008000B08A5008B138316031735
:100110008C170C140000000083120313A51B8B170F
:1001200003170C087F390319D7280313A5000317F9
:100130000D080313A60003170F080313A7002508D3
:10014000A8006520260803178D000313270803174E
:100150008F0003130B08A8008B13831603178C174B
:100160000C140000000083120313A81B8B17031745
:100170000C0D0E0D7F390319D7280313A5000317A3
:100180000D080313A60003170F080313A700250883
:10019000A8006520260803178D00031327080317FE
:1001A0008F008D0A03198F0A031383280317031383
:1001B00008008E30F7002608F8002508F900FA013B
:1001C000F808031DED287908F800F9010830F70256
:1001D000F808031DED28F701F5280310F81BF42893
:1001E000F90DF80DF703ED28F81308002908031995
:1001F000BB29B5002D080319BB29B502031C05292D
:100200007F30B5070318BB290B298130B502031CC9
:10021000BB290319BB293508F700F801F901FA01D8
:10022000B4012A08B300B3172B08B2002C08B100A0
:100230001930B5003008B10203182E290130B2027E
:1002400003182E29B30203182E29B40203182E29ED
:10025000B40AB30AB20A3008B10760292F08B20203
:10026000031849290130B30203184929B4020318BD
:100270004929B40AB30A2F08B2073008B107031C92
:100280006029B20A031D6029B30A031D6029B40A5C
:1002900060292E088038B30203185F290130B402A8
:1002A00003185F29B40A2E088038B3072F08B20755
:1002B000031C3D29B30A031D3D29B40A3D297A14C4
:1002C000B50B63296E290310B10DB20DB30DB40D3A
:1002D0000310FA0DF90DF80DB60D1A29361C762902
:1002E0000310F80CF90CFA0CB60C7929F703031972
:1002F000BB29B61BA2290310B10DB20DB30DB40D6D
:100300003008B10203188E290130B20203188E2979
:10031000B30203188E29B402031CB1292F08B202BC
:10032000031899290130B30203189929B402031C58
:10033000B1292E088038B3020318A2290130B40273
:10034000031CB129FA0A031DB129F90A031DB129B9
:10035000F80A031DB129F70A0319BB29F80CF90C97
:10036000FA0C2A08B5002E08B506B51FB929F817EA
:10037000BF29F813BF29F701F801F901FA010800B4
:100380008E30F7002508F7022608F9002708F80044
:10039000F917F7080319D7290310F908031DD32902
:1003A000F8080319D729F90CF80CF70BCC29A61F6C
:1003B000DE29F809F909F80A0319F90A08000030DA
:1003C000F8001F08C33978049F00A201A101A00111
:1003D0002008633C031CFC299F149F18ED298316F9
:1003E0001E088312A1071E0803181E0FA207013062
:1003F000A5003020A00AE8292208A6002108A500AF
:10040000D9207A08AC007908AB007808AA007708F0
:10041000A900AA30B000F130AF000230AE00803049
:10042000AD00F6207A08A8007908A7007808A60091
:100430007708A5007A08AC007908AB007808AA0014
:100440007708A900B001AF014830AE008530AD009B
:10045000F6207A08A8007908A7007808A60077088F
:10046000A500C0217908A2007808A1008A110A120B
:100470005E2B0430F8001F08C33978049F00A401E4
:10048000A301A0012008633C031C562A9F149F1857
:10049000472A83161E088312A3071E0803181E0F7F
:1004A000A4070130A5003020A00A422A2408A60093
:1004B0002308A500D9207A08AC007908AB00780899
:1004C000AA007708A900AA30B000F130AF000230CE
:1004D000AE008030AD00F6207A08A8007908A700A9
:1004E0007808A6007708A5007A08AC007908AB0068
:1004F0007808AA007708A900B001AF014830AE0023
:100500008530AD00F6207A08A8007908A7007808A1
:10051000A6007708A500C0217908A4007808A300E8
:100520008A110A125F2BF801F901F701FA01280874
:10053000031D9D2A27080319B72A1030A9000310AC
:10054000A50DA60DF70DFA0D28087A02031DAA2A9B
:1005500027087702031CB32A2708F702031CFA03B3
:100560002808FA020314F80DF90DA90B9F2A0800B8
:100570008C30A50012202208A6002108A500A801A1
:100580000A30A70093227908A6007808A500303029
:10059000A5070318A60A2508A80065202208A600BA
:1005A0002108A500A8010A30A70093227708A5001A
:1005B0007A08A6003030A5070318A60A2508A80067
:1005C0006520043003178D0000308F000313832053
:1005D000CC30A50012202408A6002308A500A801FD
:1005E0000A30A70093227908A6007808A5003030C9
:1005F000A5070318A60A2508A80065202408A60058
:100600002308A500A8010A30A70093227708A500B7
:100610007A08A6003030A5070318A60A2508A80006
:100620006520063003178D0000308F0003138320F0
:100630008A110A12602B03081F39830083160317DF
:100640000908C039890003131F129F1200300317D5
:100650008800831287018801890183130030831683
:100660000313880003308500831244288030A500DE
:100670001220083003178D0000308F0003138320F1
:10068000C030A50012200D3003178D0000308F0000
:10069000031383201F139F1783169F1783121F14A2
:1006A000831603170908C039890003131F129F120C
:1006B00003300317880083120313DF29392AB82A6D
:0406C0005D2B63004B
:04400E00E22FFF3F5F
:00000001FF
;PIC16F887
;CRC=D684  CREATED="01-Thg10-16 08:09"
