:1000000000308A00F52800000A108A100A118207C1
:10001000C034F934A434B034993492348234F8348E
:100020008034903488348334C634A13486348E349A
:10003000F801F901F701FA012808031D2228270811
:1000400003193C281030A9000310A50DA60DF70DCB
:10005000FA0D28087A02031D2F2827087702031CAF
:1000600038282708F702031CFA032808FA020314A9
:10007000F80DF90DA90B2428080023308400831300
:100080000008031950280630F800F701F70B46283E
:10009000F80B45287B30F700F70B4C28800B4328E2
:1000A0000800A0012008633C031CF2282208A600D7
:1000B0002108A5000330A800E830A700182079081F
:1000C000A4007808A3007908FA0078080420A500A5
:1000D0008316860183122508860083160812831270
:1000E00008120130A3003D2083160812831208165F
:1000F0002208A6002108A500A8016430A700182046
:100100007908A4007808A3007908A6007808A5005B
:10011000A8010A30A70018207708A3007A08A400D5
:10012000FA0077080420A5008316860183122508AB
:10013000860083168812831288120130A3003D20A6
:1001400083168812831288162208A6002108A500AB
:10015000A8010A30A70018207908A4007808A30095
:100160007908A6007808A500A8010A30A700182081
:100170007708A3007A08A400FA0077080420A500F5
:1001800083168601831225088600831608138312BE
:1001900008130130A3003D208316081383120817AB
:1001A0002208A6002108A500A8010A30A7001820EF
:1001B0007708A3007A08A400FA0077080420A500B5
:1001C00083168601831225088600831688138312FE
:1001D00088130130A3003D208316881383128817EB
:1001E000A00A52288A110A121E2903081F39830007
:1001F000831603170908C039890003131F129F12C1
:100200000030031788008312870188018901831356
:10021000003083160313860088008801FF308312A4
:100220008800A201A1012208033C031C2229031D0E
:100230001D292108E73C031C22295128A10A031982
:08024000A20A13291129630031
:04400E00E22FFF3F5F
:00000001FF
;PIC16F887
;CRC=4064  CREATED="16-Aug-16 15:48"
