:1000000001308A00042900000A108A100A118207B0
:10001000C034F934A434B034993492348234F8348E
:100020008034903488348334C634A13486348E349A
:100030002808F8012702031820282708F7002C2891
:10004000F7010830A900A70DF70D2808770203185B
:10005000F700F80DA90B232808002730840083132C
:100060000008031940280630F800F701F70B36287E
:10007000F80B35287B30F700F70B3C28800B332832
:1000800008002308A7000A30A800182078080420D8
:10009000A70083168601831227088600831608109E
:1000A000831208100130A7002D2083160810831238
:1000B00008142308A7000A30A80018207708042095
:1000C000A7008316860183122708860083168810EE
:1000D000831288100130A7002D2083168810831208
:1000E00088142208A7000A30A800182078080420E5
:1000F000A70083168601831227088600831608113D
:10010000831208110130A7002D20831608118312D5
:1001100008152208A7000A30A80018207708042034
:10012000A70083168601831227088600831688118C
:10013000831288110130A7002D20831688118312A5
:1001400088152008A7000A30A80018207808042085
:10015000A7008316860183122708860083160812DB
:10016000831208120130A7002D2083160812831273
:1001700008162008A7000A30A800182077080420D5
:10018000A70083168601831227088600831688122B
:10019000831288120130A7002D2083168812831243
:1001A00088162408A7000A30A80018207808042020
:1001B000A70083168601831227088600831608137A
:1001C000831208130130A7002D2083160813831211
:1001D00008172408A7000A30A80018207708042070
:1001E000A7008316860183122708860083168813CA
:1001F000831288130130A7002D20831688138312E1
:1002000088178A110A12332903081F3983008316BD
:1002100003170908C039890003131F129F12003009
:100220000317880083128701880189018313003036
:1002300083160313880086008312A001A201A30184
:10024000A401A101353090008E01E7308F00963077
:100250008E000C1C4F290C108E01E7308F00963059
:100260008E00A10A412821080A3C031D4F29A40A37
:1002700024080A3C031D4E29A401A00A20083C3C86
:10028000031D4E29A001A20A22083C3C031D4E2951
:10029000A201A30A2308183C0319A301A1012929DB
:0202A0006300F9
:04400E00E22FFF3F5F
:00000001FF
;PIC16F887
;CRC=7B1F  CREATED="13-Thg9-16 09:19"
