CCS PCM C Compiler, Version 5.015, 5967               07-Sep-16 09:08

               Filename:   E:\Youtube\Pic16F887\LCD\LCD_20X4\lcd 20x4 cho pic\TEST_LCD_20x4.lst

               ROM used:   326 words (4%)
                           Largest free fragment is 2048
               RAM used:   8 (2%) at main() level
                           12 (3%) worst case
               Stack used: 2 locations
               Stack size: 8

*
0000:  MOVLW  01
0001:  MOVWF  0A
0002:  GOTO   11F
0003:  NOP
.................... #INCLUDE <16F887.H> 
.................... //////////// Standard Header file for the PIC16F887 device //////////////// 
.................... /////////////////////////////////////////////////////////////////////////// 
.................... ////        (C) Copyright 1996, 2013 Custom Computer Services          //// 
.................... //// This source code may only be used by licensed users of the CCS C  //// 
.................... //// compiler.  This source code may only be distributed to other      //// 
.................... //// licensed users of the CCS C compiler.  No other use, reproduction //// 
.................... //// or distribution is permitted without written permission.          //// 
.................... //// Derivative programs created using this software in object code    //// 
.................... //// form are not restricted in any way.                               //// 
.................... /////////////////////////////////////////////////////////////////////////// 
.................... #device PIC16F887 
0004:  DATA C8,2A
0005:  DATA 59,27
0006:  DATA 48,10
0007:  DATA 4E,24
0008:  DATA 41,2A
0009:  DATA 20,2A
000A:  DATA 55,27
000B:  DATA 47,10
000C:  DATA 20,10
000D:  DATA 20,10
000E:  DATA 00,00
*
008A:  MOVF   0B,W
008B:  MOVWF  23
008C:  BCF    0B.7
008D:  BSF    03.5
008E:  BSF    03.6
008F:  BSF    0C.7
0090:  BSF    0C.0
0091:  NOP
0092:  NOP
0093:  BCF    03.5
0094:  BCF    03.6
0095:  BTFSC  23.7
0096:  BSF    0B.7
0097:  BSF    03.6
0098:  MOVF   0C,W
0099:  ANDLW  7F
009A:  BTFSC  03.2
009B:  GOTO   0DE
009C:  BCF    03.6
009D:  MOVWF  23
009E:  BSF    03.6
009F:  MOVF   0D,W
00A0:  BCF    03.6
00A1:  MOVWF  24
00A2:  BSF    03.6
00A3:  MOVF   0F,W
00A4:  BCF    03.6
00A5:  MOVWF  25
00A6:  MOVF   23,W
00A7:  MOVWF  26
00A8:  CALL   06C
00A9:  MOVF   24,W
00AA:  BSF    03.6
00AB:  MOVWF  0D
00AC:  BCF    03.6
00AD:  MOVF   25,W
00AE:  BSF    03.6
00AF:  MOVWF  0F
00B0:  BCF    03.6
00B1:  MOVF   0B,W
00B2:  MOVWF  26
00B3:  BCF    0B.7
00B4:  BSF    03.5
00B5:  BSF    03.6
00B6:  BSF    0C.7
00B7:  BSF    0C.0
00B8:  NOP
00B9:  NOP
00BA:  BCF    03.5
00BB:  BCF    03.6
00BC:  BTFSC  26.7
00BD:  BSF    0B.7
00BE:  BSF    03.6
00BF:  RLF    0C,W
00C0:  RLF    0E,W
00C1:  ANDLW  7F
00C2:  BTFSC  03.2
00C3:  GOTO   0DE
00C4:  BCF    03.6
00C5:  MOVWF  23
00C6:  BSF    03.6
00C7:  MOVF   0D,W
00C8:  BCF    03.6
00C9:  MOVWF  24
00CA:  BSF    03.6
00CB:  MOVF   0F,W
00CC:  BCF    03.6
00CD:  MOVWF  25
00CE:  MOVF   23,W
00CF:  MOVWF  26
00D0:  CALL   06C
00D1:  MOVF   24,W
00D2:  BSF    03.6
00D3:  MOVWF  0D
00D4:  BCF    03.6
00D5:  MOVF   25,W
00D6:  BSF    03.6
00D7:  MOVWF  0F
00D8:  INCF   0D,F
00D9:  BTFSC  03.2
00DA:  INCF   0F,F
00DB:  BCF    03.6
00DC:  GOTO   08A
00DD:  BSF    03.6
00DE:  BCF    03.6
00DF:  BCF    0A.3
00E0:  BCF    0A.4
00E1:  GOTO   143 (RETURN)
00E2:  MOVF   24,W
00E3:  CLRF   78
00E4:  SUBWF  23,W
00E5:  BTFSC  03.0
00E6:  GOTO   0EA
00E7:  MOVF   23,W
00E8:  MOVWF  77
00E9:  GOTO   0F6
00EA:  CLRF   77
00EB:  MOVLW  08
00EC:  MOVWF  25
00ED:  RLF    23,F
00EE:  RLF    77,F
00EF:  MOVF   24,W
00F0:  SUBWF  77,W
00F1:  BTFSC  03.0
00F2:  MOVWF  77
00F3:  RLF    78,F
00F4:  DECFSZ 25,F
00F5:  GOTO   0ED
00F6:  RETURN
....................  
.................... #list 
....................  
.................... #FUSES NOWDT, PUT, HS, NOPROTECT, NOLVP 
.................... #USE DELAY(CLOCK=20M) 
*
002D:  MOVLW  24
002E:  MOVWF  04
002F:  BCF    03.7
0030:  MOVF   00,W
0031:  BTFSC  03.2
0032:  GOTO   040
0033:  MOVLW  06
0034:  MOVWF  78
0035:  CLRF   77
0036:  DECFSZ 77,F
0037:  GOTO   036
0038:  DECFSZ 78,F
0039:  GOTO   035
003A:  MOVLW  7B
003B:  MOVWF  77
003C:  DECFSZ 77,F
003D:  GOTO   03C
003E:  DECFSZ 00,F
003F:  GOTO   033
0040:  RETURN
.................... #INCLUDE <TV_LCD_20X4.c> 
....................  
.................... #IFNDEF LCD_RS 
.................... #DEFINE LCD_RS   PIN_D5 
.................... #ENDIF 
....................  
.................... #IFNDEF LCD_RW 
.................... #DEFINE LCD_RW   PIN_D6 
.................... #ENDIF 
....................  
.................... #IFNDEF LCD_E 
.................... #DEFINE LCD_E   PIN_D7 
.................... #ENDIF 
....................  
.................... #IFNDEF OUTPUT_LCD 
.................... #DEFINE OUTPUT_LCD   OUTPUT_B 
.................... #ENDIF 
....................  
.................... #DEFINE FUNCTION_SET    0X38 
.................... #DEFINE DISPLAY_CONTROL 0X0F 
.................... #DEFINE CLEAR_DISPLAY   0X01 
.................... #DEFINE ENTRY_MODE      0X06 
.................... #DEFINE SHIFT_LEFT      0X18 
.................... #DEFINE SHIFT_RIGHT     0X1C 
....................  
.................... #DEFINE ADDR_LINE1      0X80 
.................... #DEFINE ADDR_LINE2      0XC0 
.................... #DEFINE ADDR_LINE3      0X94 
.................... #DEFINE ADDR_LINE4      0XD4 
....................  
.................... UNSIGNED INT8 H,T; 
.................... //XXXXXXXXXXXXXXXXXXXX TRUYEN VI TRI CAN HIEN THI TREN LCD XXXXXXXXXXXXXXXXXXXXXXXXX 
.................... VOID LCD_COMMAND(UNSIGNED CHAR MDK) 
.................... { 
....................    OUTPUT_LOW(LCD_RS);     OUTPUT_LCD(MDK); 
*
000F:  BSF    03.5
0010:  BCF    08.5
0011:  BCF    03.5
0012:  BCF    08.5
0013:  BSF    03.5
0014:  CLRF   06
0015:  BCF    03.5
0016:  MOVF   23,W
0017:  MOVWF  06
....................    OUTPUT_HIGH(LCD_E);     DELAY_US(20); 
0018:  BSF    03.5
0019:  BCF    08.7
001A:  BCF    03.5
001B:  BSF    08.7
001C:  MOVLW  20
001D:  MOVWF  77
001E:  DECFSZ 77,F
001F:  GOTO   01E
0020:  GOTO   021
0021:  NOP
....................    OUTPUT_LOW(LCD_E);      DELAY_US(20); 
0022:  BSF    03.5
0023:  BCF    08.7
0024:  BCF    03.5
0025:  BCF    08.7
0026:  MOVLW  20
0027:  MOVWF  77
0028:  DECFSZ 77,F
0029:  GOTO   028
002A:  GOTO   02B
002B:  NOP
002C:  RETURN
.................... } 
....................  
.................... //XXXXXXXXXXXXXXXXXXXXXX TRUYEN DU LIEU CAN HIEN THI RA LCD XXXXXXXXXXXXXXXXXXXXXX 
.................... VOID LCD_DATA(UNSIGNED CHAR MHT) 
.................... { 
....................    OUTPUT_HIGH(LCD_RS);    OUTPUT_LCD(MHT); 
*
006C:  BSF    03.5
006D:  BCF    08.5
006E:  BCF    03.5
006F:  BSF    08.5
0070:  BSF    03.5
0071:  CLRF   06
0072:  BCF    03.5
0073:  MOVF   26,W
0074:  MOVWF  06
....................    OUTPUT_HIGH(LCD_E);     DELAY_US(20); 
0075:  BSF    03.5
0076:  BCF    08.7
0077:  BCF    03.5
0078:  BSF    08.7
0079:  MOVLW  20
007A:  MOVWF  77
007B:  DECFSZ 77,F
007C:  GOTO   07B
007D:  GOTO   07E
007E:  NOP
....................    OUTPUT_LOW(LCD_E);      DELAY_US(20); 
007F:  BSF    03.5
0080:  BCF    08.7
0081:  BCF    03.5
0082:  BCF    08.7
0083:  MOVLW  20
0084:  MOVWF  77
0085:  DECFSZ 77,F
0086:  GOTO   085
0087:  GOTO   088
0088:  NOP
0089:  RETURN
.................... } 
....................  
.................... //XXXXXXXXXXXXXXXXXXXXXXX CAI DAT LCD KHI KHOI TAO XXXXXXXXXXXXXXXXXXXXXXXXXXXXXXX 
.................... VOID LCD_SETUP() 
.................... { 
....................    OUTPUT_LOW(LCD_E);      
*
0041:  BSF    03.5
0042:  BCF    08.7
0043:  BCF    03.5
0044:  BCF    08.7
....................    OUTPUT_LOW(LCD_RS);      
0045:  BSF    03.5
0046:  BCF    08.5
0047:  BCF    03.5
0048:  BCF    08.5
....................    OUTPUT_LOW(LCD_RW); 
0049:  BSF    03.5
004A:  BCF    08.6
004B:  BCF    03.5
004C:  BCF    08.6
....................    LCD_COMMAND(FUNCTION_SET);    DELAY_US(40); 
004D:  MOVLW  38
004E:  MOVWF  23
004F:  CALL   00F
0050:  MOVLW  42
0051:  MOVWF  77
0052:  DECFSZ 77,F
0053:  GOTO   052
0054:  NOP
....................    LCD_COMMAND(DISPLAY_CONTROL); DELAY_US(40); 
0055:  MOVLW  0F
0056:  MOVWF  23
0057:  CALL   00F
0058:  MOVLW  42
0059:  MOVWF  77
005A:  DECFSZ 77,F
005B:  GOTO   05A
005C:  NOP
....................     
....................    LCD_COMMAND(CLEAR_DISPLAY);   DELAY_MS(2); 
005D:  MOVLW  01
005E:  MOVWF  23
005F:  CALL   00F
0060:  MOVLW  02
0061:  MOVWF  24
0062:  CALL   02D
....................    LCD_COMMAND(ENTRY_MODE);      DELAY_MS(40); 
0063:  MOVLW  06
0064:  MOVWF  23
0065:  CALL   00F
0066:  MOVLW  28
0067:  MOVWF  24
0068:  CALL   02D
0069:  BCF    0A.3
006A:  BCF    0A.4
006B:  GOTO   139 (RETURN)
.................... } 
....................  
.................... //XXXXXXXXXXXXXXXXXXXXXXXXX FONT CHU LON CUA MA 8 DOAN XXXXXXXXXXXXXXXXXXXXXXXXXXX 
.................... CONST UNSIGNED CHAR LCD_SO_X[10][6] = { 
....................                     0,1,2,5,3,4,                   //SO 0 
....................                     1,2,32,3,7,3,                  //SO 1 
....................                     6,6,2,5,3,3,                   //SO 2 
....................                     6,6,2,3,3,4,                   //SO 3 
....................                     7,3,7,32,32,7,                 //SO 4 
....................                     7,6,6,3,3,4,                   //SO 5 
....................                     0,6,6,5,3,4,                   //SO 6 
....................                     1,1,7,32,32,7,                 //SO 7 
....................                     0,6,2,5,3,4,                   //SO 8 
....................                     0,6,2,3,3,4};                  //SO 9 
....................                      
....................                      
.................... CONST UNSIGNED CHAR LCD_MA_8DOAN[] = { 
....................    0x07,0x0F,0x1F,0x1F,0x1F,0x1F,0x1F,0x1F,  //DOAN F - 0 
....................    0x1F,0x1F,0x1F,0X00,0X00,0X00,0X00,0X00,  //DOAN A - 1 
....................    0x1C,0x1E,0x1F,0x1F,0x1F,0x1F,0x1F,0x1F,  //DOAN B - 2 
....................    0X00,0X00,0X00,0X00,0X00,0x1F,0x1F,0x1F,  //DOAN D - 3 
....................    0x1F,0x1F,0x1F,0x1F,0x1F,0x1F,0x1E,0x1C,  //DOAN C - 4 
....................    0x1F,0x1F,0x1F,0x1F,0x1F,0x1F,0x0F,0x07,  //DOAN E - 5 
....................    0x1F,0x1F,0x1F,0X00,0X00,0X00,0x1F,0x1F,  //DOAN G+D-6  
....................    0x1F,0x1F,0x1F,0x1F,0x1F,0x1F,0x1F,0x1F}; //DOAN I  -7 
....................     
.................... VOID LCD_GOTO_XY(SIGNED INT8 X, SIGNED INT8 Y) 
.................... {  
....................    CONST UNSIGNED INT8 LCD_VITRI[]={0x80,0xC0,0x94,0xD4}; 
....................    LCD_COMMAND(LCD_VITRI[X]+Y); 
.................... } 
....................  
.................... VOID XXX() 
.................... {  
....................    SIGNED INT8 X; 
....................    X= LCD_SO_X[0][0]; 
....................    X= LCD_MA_8DOAN[0]; 
.................... } 
....................  
.................... //XXXXXXXXXXXXXXXXXXXXXXXX HIEN THI CHU HAY SO LON CHIEM 6 O XXXXXXXXXXXXXXXXXXXXXXXXXXXX 
.................... VOID HIENTHI_FONT_LON(SIGNED INT8 SO, SIGNED INT8 X1,SIGNED INT8 Y1) 
.................... { 
....................    LCD_GOTO_XY(X1,Y1); 
....................    FOR(H=0;H<6;H++) 
....................    { 
....................       IF(H==3)       LCD_GOTO_XY(X1+1,Y1); 
....................       LCD_DATA(LCD_SO_X[SO][H]); 
....................    } 
.................... } 
....................  
.................... //XXXXXXXXXXXXXXXXXXXXXXXXXXXXXXXXXXXXXXXXXXXXXXXXXXXXXXXXXXXXXXXXXXXXXXXXXXXX 
.................... VOID LAY_MA_8DOAN() 
.................... { 
....................    LCD_COMMAND(0X40);      DELAY_US(20); 
....................    FOR(T=0;T<64;T++) 
....................    { 
....................       LCD_DATA(LCD_MA_8DOAN[T]); 
....................    } 
.................... } 
....................  
....................  
....................  
.................... UNSIGNED INT8 I; 
....................  
.................... VOID DEM_GIAY() 
.................... { 
....................    FOR(I=0;I<20;I++) 
*
00F7:  CLRF   22
00F8:  MOVF   22,W
00F9:  SUBLW  13
00FA:  BTFSS  03.0
00FB:  GOTO   11C
....................    { 
....................       LCD_COMMAND(0X94); 
00FC:  MOVLW  94
00FD:  MOVWF  23
00FE:  CALL   00F
....................       LCD_DATA(I/10 + 0X30); 
00FF:  MOVF   22,W
0100:  MOVWF  23
0101:  MOVLW  0A
0102:  MOVWF  24
0103:  CALL   0E2
0104:  MOVLW  30
0105:  ADDWF  78,W
0106:  MOVWF  23
0107:  MOVWF  26
0108:  CALL   06C
....................       LCD_DATA(I%10 + 0X30); 
0109:  MOVF   22,W
010A:  MOVWF  23
010B:  MOVLW  0A
010C:  MOVWF  24
010D:  CALL   0E2
010E:  MOVLW  30
010F:  ADDWF  77,W
0110:  MOVWF  23
0111:  MOVWF  26
0112:  CALL   06C
....................       DELAY_MS(1000); 
0113:  MOVLW  04
0114:  MOVWF  23
0115:  MOVLW  FA
0116:  MOVWF  24
0117:  CALL   02D
0118:  DECFSZ 23,F
0119:  GOTO   115
011A:  INCF   22,F
011B:  GOTO   0F8
....................    } 
011C:  BCF    0A.3
011D:  BCF    0A.4
011E:  GOTO   144 (RETURN)
.................... } 
....................  
....................  
.................... //XXXXXXXXXXXXXXXXXXXXXXXXXXX CHUONG TRINH CHINH XXXXXXXXXXXXXXXXXXXXXXXXXXXXXXX 
.................... VOID MAIN() 
011F:  MOVF   03,W
0120:  ANDLW  1F
0121:  MOVWF  03
0122:  BSF    03.5
0123:  BSF    03.6
0124:  MOVF   09,W
0125:  ANDLW  C0
0126:  MOVWF  09
0127:  BCF    03.6
0128:  BCF    1F.4
0129:  BCF    1F.5
012A:  MOVLW  00
012B:  BSF    03.6
012C:  MOVWF  08
012D:  BCF    03.5
012E:  CLRF   07
012F:  CLRF   08
0130:  CLRF   09
0131:  BCF    03.7
.................... { 
....................    SET_TRIS_D(0X00); 
0132:  MOVLW  00
0133:  BSF    03.5
0134:  BCF    03.6
0135:  MOVWF  08
....................    SET_TRIS_B(0X00); 
0136:  MOVWF  06
....................     
....................    
....................    LCD_SETUP(); 
0137:  BCF    03.5
0138:  GOTO   041
....................    LCD_COMMAND(ADDR_LINE1); 
0139:  MOVLW  80
013A:  MOVWF  23
013B:  CALL   00F
....................    LCD_DATA("HUYNH NHAT TUNG     "); 
013C:  MOVLW  04
013D:  BSF    03.6
013E:  MOVWF  0D
013F:  MOVLW  00
0140:  MOVWF  0F
0141:  BCF    03.6
0142:  GOTO   08A
....................     
....................    WHILE(TRUE) 
....................    { 
....................       DEM_GIAY(); 
0143:  GOTO   0F7
0144:  GOTO   143
....................    } 
.................... } 
....................  
0145:  SLEEP

Configuration Fuses:
   Word  1: 2FE2   HS NOWDT PUT MCLR NOPROTECT NOCPD BROWNOUT IESO FCMEN NOLVP NODEBUG
   Word  2: 3FFF   BORV40 NOWRT
