CCS PCM C Compiler, Version 5.015, 5967               20-Thg3-17 21:41

               Filename:   E:\Youtube\Pic16F887\UART\UART.lst

               ROM used:   157 words (2%)
                           Largest free fragment is 2048
               RAM used:   25 (7%) at main() level
                           26 (7%) worst case
               Stack used: 2 locations
               Stack size: 8

*
0000:  MOVLW  00
0001:  MOVWF  0A
0002:  GOTO   057
0003:  NOP
.................... #INCLUDE <16F887.H> 
.................... //////////// Standard Header file for the PIC16F887 device //////////////// 
.................... /////////////////////////////////////////////////////////////////////////// 
.................... ////        (C) Copyright 1996, 2013 Custom Computer Services          //// 
.................... //// This source code may only be used by licensed users of the CCS C  //// 
.................... //// compiler.  This source code may only be distributed to other      //// 
.................... //// licensed users of the CCS C compiler.  No other use, reproduction //// 
.................... //// or distribution is permitted without written permission.          //// 
.................... //// Derivative programs created using this software in object code    //// 
.................... //// form are not restricted in any way.                               //// 
.................... /////////////////////////////////////////////////////////////////////////// 
.................... #device PIC16F887 
....................  
.................... #list 
....................  
.................... #fuses hs, put,noprotect,nolvp, nowdt 
.................... #USE DELAY(CLOCK=20M) 
*
0022:  MOVLW  34
0023:  MOVWF  04
0024:  BCF    03.7
0025:  MOVF   00,W
0026:  BTFSC  03.2
0027:  GOTO   035
0028:  MOVLW  06
0029:  MOVWF  78
002A:  CLRF   77
002B:  DECFSZ 77,F
002C:  GOTO   02B
002D:  DECFSZ 78,F
002E:  GOTO   02A
002F:  MOVLW  7B
0030:  MOVWF  77
0031:  DECFSZ 77,F
0032:  GOTO   031
0033:  DECFSZ 00,F
0034:  GOTO   028
0035:  RETURN
.................... #INCLUDE <E:\Youtube\Pic16F887\THU_VIEN\TV_LCD_16X2.c> 
.................... #IFNDEF LCD_RS 
.................... #DEFINE LCD_RS   PIN_B2 
.................... #ENDIF 
....................  
.................... #IFNDEF LCD_RW 
.................... #DEFINE LCD_RW   PIN_B1 
.................... #ENDIF 
....................  
.................... #IFNDEF LCD_E 
.................... #DEFINE LCD_E   PIN_B0 
.................... #ENDIF 
....................  
.................... #IFNDEF OUTPUT_LCD 
.................... #DEFINE OUTPUT_LCD   OUTPUT_D 
.................... #ENDIF 
....................  
.................... #DEFINE FUNCTION_SET    0X38 
.................... #DEFINE DISPLAY_CONTROL 0X0F 
.................... #DEFINE CLEAR_DISPLAY   0X01 
.................... #DEFINE ENTRY_MODE      0X06 
.................... #DEFINE SHIFT_LEFT      0X18 
.................... #DEFINE SHIFT_RIGHT     0X1C 
.................... #DEFINE ADDR_LINE1      0X80 
.................... #DEFINE ADDR_LINE2      0XC0 
....................  
....................  
.................... //XXXXXXXXXXXXXXXXXXXX TRUYEN VI TRI CAN HIEN THI TREN LCD XXXXXXXXXXXXXXXXXXXXXXXXX 
.................... VOID LCD_COMMAND(UNSIGNED CHAR MDK) 
.................... { 
....................    OUTPUT_LOW(LCD_RS);     OUTPUT_LCD(MDK); 
*
0004:  BSF    03.5
0005:  BCF    06.2
0006:  BCF    03.5
0007:  BCF    06.2
0008:  BSF    03.5
0009:  CLRF   08
000A:  BCF    03.5
000B:  MOVF   34,W
000C:  MOVWF  08
....................    OUTPUT_HIGH(LCD_E);     DELAY_US(20); 
000D:  BSF    03.5
000E:  BCF    06.0
000F:  BCF    03.5
0010:  BSF    06.0
0011:  MOVLW  20
0012:  MOVWF  77
0013:  DECFSZ 77,F
0014:  GOTO   013
0015:  GOTO   016
0016:  NOP
....................    OUTPUT_LOW(LCD_E);      DELAY_US(20); 
0017:  BSF    03.5
0018:  BCF    06.0
0019:  BCF    03.5
001A:  BCF    06.0
001B:  MOVLW  20
001C:  MOVWF  77
001D:  DECFSZ 77,F
001E:  GOTO   01D
001F:  GOTO   020
0020:  NOP
0021:  RETURN
.................... } 
....................  
.................... //XXXXXXXXXXXXXXXXXXXXXX TRUYEN DU LIEU CAN HIEN THI RA LCD XXXXXXXXXXXXXXXXXXXXXX 
.................... VOID LCD_DATA(UNSIGNED CHAR MHT) 
.................... { 
....................    OUTPUT_HIGH(LCD_RS);     OUTPUT_LCD(MHT); 
....................    OUTPUT_HIGH(LCD_E);     DELAY_US(20); 
....................    OUTPUT_LOW(LCD_E);     DELAY_US(20); 
.................... } 
....................  
.................... //XXXXXXXXXXXXXXXXXXXXXXX CAI DAT LCD KHI KHOI TAO XXXXXXXXXXXXXXXXXXXXXXXXXXXXXXX 
.................... VOID LCD_SETUP() 
.................... { 
....................    OUTPUT_LOW(LCD_E);      
*
0036:  BSF    03.5
0037:  BCF    06.0
0038:  BCF    03.5
0039:  BCF    06.0
....................    OUTPUT_LOW(LCD_RS);      
003A:  BSF    03.5
003B:  BCF    06.2
003C:  BCF    03.5
003D:  BCF    06.2
....................    OUTPUT_LOW(LCD_RW); 
003E:  BSF    03.5
003F:  BCF    06.1
0040:  BCF    03.5
0041:  BCF    06.1
....................    LCD_COMMAND(FUNCTION_SET);    DELAY_MS(1); 
0042:  MOVLW  38
0043:  MOVWF  34
0044:  CALL   004
0045:  MOVLW  01
0046:  MOVWF  34
0047:  CALL   022
....................    LCD_COMMAND(DISPLAY_CONTROL); 
0048:  MOVLW  0F
0049:  MOVWF  34
004A:  CALL   004
....................     
....................    LCD_COMMAND(CLEAR_DISPLAY);   DELAY_MS(2); 
004B:  MOVLW  01
004C:  MOVWF  34
004D:  CALL   004
004E:  MOVLW  02
004F:  MOVWF  34
0050:  CALL   022
....................    LCD_COMMAND(ENTRY_MODE); 
0051:  MOVLW  06
0052:  MOVWF  34
0053:  CALL   004
0054:  BCF    0A.3
0055:  BCF    0A.4
0056:  GOTO   093 (RETURN)
....................     
.................... } 
....................  
....................  
.................... #USE rs232(baud=9600,xmit=pin_c6,rcv=pin_c7)  //xmit : truyen, rcv : nhan 
.................... UNSIGNED CHAR HANG1[16] = {0x20, 0x20, 0x20, 0x20,0x20, 0x20, 0x20, 0x20,0x20, 0x20, 0x20, 0x20,0x20, 0x20, 0x20, 0x20}; 
*
007A:  MOVLW  20
007B:  BCF    03.6
007C:  MOVWF  20
007D:  MOVWF  21
007E:  MOVWF  22
007F:  MOVWF  23
0080:  MOVWF  24
0081:  MOVWF  25
0082:  MOVWF  26
0083:  MOVWF  27
0084:  MOVWF  28
0085:  MOVWF  29
0086:  MOVWF  2A
0087:  MOVWF  2B
0088:  MOVWF  2C
0089:  MOVWF  2D
008A:  MOVWF  2E
008B:  MOVWF  2F
.................... UNSIGNED INT8 DATA=0,K,I; 
.................... VOID HIENTHI() 
.................... { 
.................... //!   LCD_COMMAND(0X8F); 
.................... //!   DELAY_US(20); 
.................... //!   LCD_DATA(DATA); 
....................     
....................    LCD_COMMAND(0X8E); 
....................    FOR(I=0;I<16;I++) 
....................    { 
....................       LCD_DATA(HANG1[I]); 
....................    } 
.................... } 
....................  
.................... VOID DICH_NGUOC() 
.................... { 
....................    FOR(K=16;K>0;K--) 
....................    { 
....................       HANG1[K] = HANG1[K+1]; 
....................    } 
....................          HANG1[15] = DATA; 
....................    HIENTHI(); 
.................... } 
....................  
....................  
.................... VOID MAIN() 
*
0057:  MOVF   03,W
0058:  ANDLW  1F
0059:  MOVWF  03
005A:  BSF    03.5
005B:  BSF    03.6
005C:  BSF    07.3
005D:  MOVLW  08
005E:  BCF    03.6
005F:  MOVWF  19
0060:  MOVLW  02
0061:  MOVWF  1A
0062:  MOVLW  A6
0063:  MOVWF  18
0064:  MOVLW  90
0065:  BCF    03.5
0066:  MOVWF  18
0067:  CLRF   30
0068:  MOVLW  FF
0069:  MOVWF  33
006A:  BSF    03.5
006B:  BSF    03.6
006C:  MOVF   09,W
006D:  ANDLW  C0
006E:  MOVWF  09
006F:  BCF    03.6
0070:  BCF    1F.4
0071:  BCF    1F.5
0072:  MOVLW  00
0073:  BSF    03.6
0074:  MOVWF  08
0075:  BCF    03.5
0076:  CLRF   07
0077:  CLRF   08
0078:  CLRF   09
0079:  BCF    03.7
.................... { 
....................    SET_TRIS_D(0X00);  
*
008C:  MOVLW  00
008D:  BSF    03.5
008E:  MOVWF  08
....................    SET_TRIS_c(0X00); 
008F:  MOVWF  07
0090:  BCF    03.5
0091:  MOVWF  33
....................    LCD_SETUP(); 
0092:  GOTO   036
....................    WHILE(TRUE) 
....................    { 
.................... //!      IF(KBHIT()) 
.................... //!      { 
.................... //!         DATA=GETCH(); 
.................... //!         DICH_NGUOC(); 
.................... //!      } 
....................          output_bit(pin_a0,1); 
0093:  BSF    05.0
0094:  BSF    03.5
0095:  BCF    05.0
....................          output_bit(pin_a5,0); 
0096:  BCF    03.5
0097:  BCF    05.5
0098:  BSF    03.5
0099:  BCF    05.5
009A:  BCF    03.5
009B:  GOTO   093
....................    } 
.................... } 
009C:  SLEEP

Configuration Fuses:
   Word  1: 2FE2   HS NOWDT PUT MCLR NOPROTECT NOCPD BROWNOUT IESO FCMEN NOLVP NODEBUG
   Word  2: 3FFF   BORV40 NOWRT
