:1000000002308A00722A00000A108A100A11820740
:10001000003401340234053403340434013402342E
:1000200020340334073403340634063402340534F0
:100030000334033406340634023403340334043402
:1000400007340334073420342034073407340634AB
:1000500006340334033404340034063406340534DF
:100060000334043401340134073420342034073499
:1000700000340634023405340334043400340634C6
:1000800002340334033404340A108A100A1182073C
:1000900007340F341F341F341F341F341F341F34F0
:1000A0001F341F341F340034003400340034003453
:1000B0001C341E341F341F341F341F341F341F34AC
:1000C000003400340034003400341F341F341F3433
:1000D0001F341F341F341F341F341F341E341C348C
:1000E0001F341F341F341F341F341F340F340734A0
:1000F0001F341F341F340034003400341F341F34C5
:100100001F341F341F341F341F341F341F341F3457
:100110000A108A100A1182078034C0349434D4340F
:10012000201020002010200020102000201020008F
:10013000C4224D10D3204E105024C126A021D5201A
:10014000202A30100000C4224D10D3204E1050241D
:10015000C126A021D520202A311000008316881244
:10016000831288128316860183122F088600831655
:100170008813831288172030F700F70BBD28C0289A
:10018000000083168813831288132030F700F70BC2
:10019000C728CA28000008002730840083130008FD
:1001A0000319DF280630F800F701F70BD528F80B04
:1001B000D4287B30F700F70BDB28800BD22808000F
:1001C0008316881383128813831688128312881269
:1001D00083160813831208133830AF00AE20423064
:1001E000F700F70BF12800000F30AF00AE204230CF
:1001F000F700F70BF92800000130AF00AE20023005
:10020000A700CC200630AF00AE202830A700CC20BD
:100210008A110A128C2A8316881283128816831672
:10022000860183122C088600831688138312881790
:100230002030F700F70B1A291D29000083168813B8
:10024000831288132030F700F70B24292729000098
:1002500008004030AF00AE202030F700F70B2E2909
:1002600031290000A10121083F3C031C3E2921083F
:100270004420A700AC000B21A10A33298A110A12DD
:10028000992A2908F8012802031849292808F700A3
:100290005529F7010830AA00A80DF70D29087702A3
:1002A0000318F700F80DAA0B4C2908002C08882029
:1002B0002D07AE00AF00AE2008000B08A7008B137F
:1002C000831603178C170C1400000000831203130D
:1002D000A71B8B1703170C087F390319B1290313C8
:1002E000A70003170D080313A80003170F08031333
:1002F000A9002708AC000B21280803178D00031361
:10030000290803178F0003130B08AA008B13831609
:1003100003178C170C140000000083120313AA1B90
:100320008B1703170C0D0E0D7F390319B129031319
:10033000A70003170D080313A80003170F080313E2
:10034000A9002708AC000B21280803178D00031310
:10035000290803178F008D0A03198F0A03135D29DB
:100360000317031308002908AC002A08AD00562122
:10037000A0012008053C031CF8292008033C031DAC
:10038000C82901302907AB00AC002A08AD0056216E
:100390002808AB000630AC00F701F8012B08031069
:1003A0002C18F707F70CF80CAC18F707F70CF80C3B
:1003B0002C19F707F70CF80CAC19F707F70CF80C29
:1003C0002C1AF707F70CF80CAC1AF707F70CF80C17
:1003D0002C1BF707F70CF80CAC1BF707F70CF80C05
:1003E000200878070420AB00AC000B21A00AB92933
:1003F00008000108A2002208A8000A30A900412133
:100400007808A8000A30A90041217708A300220833
:10041000A8006430A90041217808A400A408031DA5
:10042000442A0130AC000B30AD0056219030031748
:100430008D0000308F0003135D210230AC000B30C3
:10044000AD005621923003178D0000308F0003134A
:100450005D21A308031D442A0130AC000E30AD001D
:100460005621943003178D0000308F0003135D2157
:100470000230AC000E30AD005621963003178D00CF
:1004800000308F0003135D218030AF00AE20983024
:1004900003178D0000308F0003135D212408A8008E
:1004A0000130A9000B30AA00B3212308A8000130B5
:1004B000A9000E30AA00B3212208A8000A30A90022
:1004C00041217708A700A8000130A9001130AA0037
:1004D000B3212208783C031D6F2A013081008A1164
:1004E0000A129A2A03081F39830083160317090882
:1004F000C039890003131F129F12003003178800B0
:100500008312870188018901831300308316031346
:10051000880086008312E02883160108C73928382E
:10052000810007308312900081018E018F018E01BE
:080530002929F929992A630029
:04400E00E22FFF3F5F
:00000001FF
;PIC16F887
;CRC=206D  CREATED="11-Thg10-16 10:58"
