:1000000002308A009D2A00000A108A100A11820715
:10001000C034F934A434B034993492348234F8348E
:10002000803490342A308400831300080319252873
:100030000630F800F701F70B1B28F80B1A287B3065
:10004000F700F70B2128800B18280800831686017B
:1000500083122308860083168813831288130130C5
:10006000AA0012208316881383128817831686012C
:1000700083122208860083160813831208130130A6
:10008000AA0012208316081383120817831686010C
:100090008312250886008316881083128810013089
:1000A000AA001220831688108312881483168601F2
:1000B000831224088600831608108312081001306A
:1000C000AA001220831608108312081408008E302C
:1000D000F7002B08F8002A08F900FA01F808031DB8
:1000E0007B287908F800F9010830F702F808031DA9
:1000F0007B28F70183280310F81B8228F90DF80DDF
:10010000F7037B28F81308002E0803194929BA00C1
:10011000320803194929BA02031C93287F30BA0711
:100120000318492999288130BA02031C4929031967
:1001300049293A08F700F801F901FA01B9012F0835
:10014000B800B8173008B7003108B6001930BA0047
:100150003508B6020318BC280130B7020318BC28C2
:10016000B8020318BC28B9020318BC28B90AB80A97
:10017000B70A3508B607EE283408B7020318D7289F
:100180000130B8020318D728B9020318D728B90AD2
:10019000B80A3408B7073508B607031CEE28B70AB3
:1001A000031DEE28B80A031DEE28B90AEE2833080D
:1001B0008038B8020318ED280130B9020318ED2881
:1001C000B90A33088038B8073408B707031CCB28AE
:1001D000B80A031DCB28B90ACB287A14BA0BF12828
:1001E000FC280310B60DB70DB80DB90D0310FA0DAC
:1001F000F90DF80DBB0DA8283B1C04290310F80CC1
:10020000F90CFA0CBB0C0729F70303194929BB1B8E
:1002100030290310B60DB70DB80DB90D3508B6026B
:1002200003181C290130B70203181C29B80203184F
:100230001C29B902031C3F293408B70203182729D7
:100240000130B80203182729B902031C3F293308DB
:100250008038B802031830290130B902031C3F2945
:10026000FA0A031D3F29F90A031D3F29F80A031D55
:100270003F29F70A03194929F80CF90CFA0C2F0841
:10028000BA003308BA06BA1F4729F8174D29F813E0
:100290004D29F701F801F901FA0108008E30F70045
:1002A0002A08F7022B08F9002C08F800F917F708BC
:1002B000031965290310F908031D6129F8080319BA
:1002C0006529F90CF80CF70B5A29AB1F6C29F809B2
:1002D000F909F80A0319F90A08000030F8001F08A4
:1002E000C33978049F00A701A601A0012008633C40
:1002F000031C8B299F149F187B2983161E088312C9
:10030000A6071E0803181E0FA7070130AA00122017
:100310002620A00A76292708AB002608AA00672015
:100320007A08B1007908B0007808AF007708AE000D
:10033000AA30B500F130B4000230B3008030B20012
:1003400084207A08AD007908AC007808AB00770803
:10035000AA007A08B1007908B0007808AF007708E1
:10036000AE00B501B4014830B3008530B20084203E
:100370007A08AD007908AC007808AB007708AA00CD
:100380004E217908A7007808A6008A110A12CC2A03
:100390000430F8001F08C33978049F00A901A801A0
:1003A000A0012008633C031CE6299F149F18D6294E
:1003B00083161E088312A8071E0803181E0FA9071C
:1003C0000130AA0012202620A00AD1292908AB005A
:1003D0002808AA0067207A08B1007908B0007808D8
:1003E000AF007708AE00AA30B500F130B40002309B
:1003F000B3008030B20084207A08AD007908AC00E8
:100400007808AB007708AA007A08B1007908B00034
:100410007808AF007708AE00B501B4014830B300EA
:100420008530B20084207A08AD007908AC007808E5
:10043000AB007708AA004E217908A9007808A80027
:100440008A110A12CD2AF801F901F701FA012D08E3
:10045000031D2D2A2C080319472A1030AE00031063
:10046000AA0DAB0DF70DFA0D2D087A02031D3A2ADD
:100470002C087702031C432A2C08F702031CFA03FA
:100480002D08FA020314F80DF90DAE0B2F2A0800FF
:100490002708AB002608AA00AD010A30AC002322D1
:1004A0007908AB007808AA007908FA0078080420D7
:1004B000F800A2002708AB002608AA00AD010A3008
:1004C000AC0023227708AA007A08AB00FA0077086C
:1004D0000420F800A3002208C03C031D712AFF304D
:1004E000A2002908AB002808AA00AD010A30AC0020
:1004F00023227908AB007808AA007908FA00780866
:100500000420F800A4002908AB002808AA00AD01C7
:100510000A30AC0023227708AA007A08AB00FA0060
:1005200077080420F800A5002408C03C031D9A2A7F
:10053000FF30A4008A110A12CE2A03081F39830053
:10054000831603170908C039890003131F129F126D
:100550000030031788008312870188018901831303
:100560000030831603138600880003308500831251
:100570001F139F1783169F1783121F1483160317C9
:100580000908C039890003131F129F120330031793
:100590008800831203136D29C829482ACB2A6300D7
:04400E00E22FFF3F5F
:00000001FF
;PIC16F887
;CRC=427C  CREATED="29-Thg9-16 22:50"
