CCS PCM C Compiler, Version 5.015, 5967               08-Thg11-16 23:55

               Filename:   E:\Youtube\Pic16F887\LCD\LCD_20X4\GLCD_FONT_LON.lst

               ROM used:   318 words (4%)
                           Largest free fragment is 2048
               RAM used:   7 (2%) at main() level
                           10 (3%) worst case
               Stack used: 2 locations
               Stack size: 8

*
0000:  MOVLW  01
0001:  MOVWF  0A
0002:  GOTO   103
0003:  NOP
.................... #INCLUDE <16F887.H> 
.................... //////////// Standard Header file for the PIC16F887 device //////////////// 
.................... /////////////////////////////////////////////////////////////////////////// 
.................... ////        (C) Copyright 1996, 2013 Custom Computer Services          //// 
.................... //// This source code may only be used by licensed users of the CCS C  //// 
.................... //// compiler.  This source code may only be distributed to other      //// 
.................... //// licensed users of the CCS C compiler.  No other use, reproduction //// 
.................... //// or distribution is permitted without written permission.          //// 
.................... //// Derivative programs created using this software in object code    //// 
.................... //// form are not restricted in any way.                               //// 
.................... /////////////////////////////////////////////////////////////////////////// 
.................... #device PIC16F887 
0004:  BCF    0A.0
0005:  BCF    0A.1
0006:  BCF    0A.2
0007:  ADDWF  02,F
0008:  RETLW  04
0009:  RETLW  60
000A:  RETLW  FE
000B:  RETLW  40
000C:  RETLW  10
000D:  RETLW  44
000E:  RETLW  10
000F:  RETLW  7E
0010:  RETLW  24
0011:  RETLW  84
0012:  RETLW  3C
0013:  RETLW  84
0014:  RETLW  65
0015:  RETLW  48
0016:  RETLW  A6
0017:  RETLW  48
0018:  RETLW  24
0019:  RETLW  50
001A:  RETLW  24
001B:  RETLW  10
001C:  RETLW  24
001D:  RETLW  20
001E:  RETLW  3C
001F:  RETLW  20
0020:  RETLW  24
0021:  RETLW  40
0022:  RETLW  00
0023:  RETLW  80
0024:  RETLW  01
0025:  RETLW  00
0026:  RETLW  00
0027:  RETLW  00
0028:  DATA C8,2A
0029:  DATA 59,27
002A:  DATA 48,10
002B:  DATA 4E,24
002C:  DATA 41,2A
002D:  DATA 20,2A
002E:  DATA 55,27
002F:  DATA 47,00
*
00AB:  MOVF   0B,W
00AC:  MOVWF  21
00AD:  BCF    0B.7
00AE:  BSF    03.5
00AF:  BSF    03.6
00B0:  BSF    0C.7
00B1:  BSF    0C.0
00B2:  NOP
00B3:  NOP
00B4:  BCF    03.5
00B5:  BCF    03.6
00B6:  BTFSC  21.7
00B7:  BSF    0B.7
00B8:  BSF    03.6
00B9:  MOVF   0C,W
00BA:  ANDLW  7F
00BB:  BTFSC  03.2
00BC:  GOTO   0FF
00BD:  BCF    03.6
00BE:  MOVWF  21
00BF:  BSF    03.6
00C0:  MOVF   0D,W
00C1:  BCF    03.6
00C2:  MOVWF  22
00C3:  BSF    03.6
00C4:  MOVF   0F,W
00C5:  BCF    03.6
00C6:  MOVWF  23
00C7:  MOVF   21,W
00C8:  MOVWF  24
00C9:  CALL   08D
00CA:  MOVF   22,W
00CB:  BSF    03.6
00CC:  MOVWF  0D
00CD:  BCF    03.6
00CE:  MOVF   23,W
00CF:  BSF    03.6
00D0:  MOVWF  0F
00D1:  BCF    03.6
00D2:  MOVF   0B,W
00D3:  MOVWF  24
00D4:  BCF    0B.7
00D5:  BSF    03.5
00D6:  BSF    03.6
00D7:  BSF    0C.7
00D8:  BSF    0C.0
00D9:  NOP
00DA:  NOP
00DB:  BCF    03.5
00DC:  BCF    03.6
00DD:  BTFSC  24.7
00DE:  BSF    0B.7
00DF:  BSF    03.6
00E0:  RLF    0C,W
00E1:  RLF    0E,W
00E2:  ANDLW  7F
00E3:  BTFSC  03.2
00E4:  GOTO   0FF
00E5:  BCF    03.6
00E6:  MOVWF  21
00E7:  BSF    03.6
00E8:  MOVF   0D,W
00E9:  BCF    03.6
00EA:  MOVWF  22
00EB:  BSF    03.6
00EC:  MOVF   0F,W
00ED:  BCF    03.6
00EE:  MOVWF  23
00EF:  MOVF   21,W
00F0:  MOVWF  24
00F1:  CALL   08D
00F2:  MOVF   22,W
00F3:  BSF    03.6
00F4:  MOVWF  0D
00F5:  BCF    03.6
00F6:  MOVF   23,W
00F7:  BSF    03.6
00F8:  MOVWF  0F
00F9:  INCF   0D,F
00FA:  BTFSC  03.2
00FB:  INCF   0F,F
00FC:  BCF    03.6
00FD:  GOTO   0AB
00FE:  BSF    03.6
00FF:  BCF    03.6
0100:  BCF    0A.3
0101:  BCF    0A.4
0102:  GOTO   137 (RETURN)
....................  
.................... #list 
....................  
.................... #FUSES NOWDT, PUT, HS, NOPROTECT, NOLVP 
.................... #USE DELAY(CLOCK=20M) 
*
006F:  MOVLW  22
0070:  MOVWF  04
0071:  BCF    03.7
0072:  MOVF   00,W
0073:  BTFSC  03.2
0074:  GOTO   082
0075:  MOVLW  06
0076:  MOVWF  78
0077:  CLRF   77
0078:  DECFSZ 77,F
0079:  GOTO   078
007A:  DECFSZ 78,F
007B:  GOTO   077
007C:  MOVLW  7B
007D:  MOVWF  77
007E:  DECFSZ 77,F
007F:  GOTO   07E
0080:  DECFSZ 00,F
0081:  GOTO   075
....................  
.................... #INCLUDE <E:\Youtube\Pic16F887\GLCD\TV_GLCD.c> 
.................... #IFNDEF GLCD_RS 
.................... #DEFINE GLCD_RS   PIN_B2 
.................... #ENDIF 
....................  
.................... #IFNDEF GLCD_RW 
.................... #DEFINE GLCD_RW   PIN_B1 
.................... #ENDIF 
....................  
.................... #IFNDEF GLCD_E 
.................... #DEFINE GLCD_E   PIN_B0 
.................... #ENDIF 
....................  
.................... #IFNDEF OUTPUT_GLCD 
.................... #DEFINE OUTPUT_GLCD   OUTPUT_D 
.................... #ENDIF 
....................  
.................... #DEFINE GLCD_TEXT_MODE          0x30 
.................... #DEFINE GLCD_GRAPHIC_MODE       0x36  
....................  
.................... #DEFINE GLCD_CLEAR_DISPLAY      0X01 
.................... #DEFINE GLCD_CURSOR_DISPLAY     0X0C 
.................... #DEFINE GLCD_ENTRY_MODE         0X06 
....................  
....................  
.................... #DEFINE GLCD_ADDR_LINE1         0X80 
.................... #DEFINE GLCD_ADDR_LINE2         0X90 
.................... #DEFINE GLCD_ADDR_LINE3         0X88 
.................... #DEFINE GLCD_ADDR_LINE4         0X98 
....................  
.................... VOID GLCD_COMMAND(UNSIGNED CHAR MDK) 
.................... { 
....................    OUTPUT_LOW(GLCD_RS);     OUTPUT_GLCD(MDK); 
*
0030:  BSF    03.5
0031:  BCF    06.2
0032:  BCF    03.5
0033:  BCF    06.2
0034:  BSF    03.5
0035:  CLRF   08
0036:  BCF    03.5
0037:  MOVF   22,W
0038:  MOVWF  08
....................    OUTPUT_HIGH(GLCD_E);     DELAY_US(20); 
0039:  BSF    03.5
003A:  BCF    06.0
003B:  BCF    03.5
003C:  BSF    06.0
003D:  MOVLW  20
003E:  MOVWF  77
003F:  DECFSZ 77,F
0040:  GOTO   03F
0041:  GOTO   042
0042:  NOP
....................    OUTPUT_LOW(GLCD_E);      DELAY_US(20); 
0043:  BSF    03.5
0044:  BCF    06.0
0045:  BCF    03.5
0046:  BCF    06.0
0047:  MOVLW  20
0048:  MOVWF  77
0049:  DECFSZ 77,F
004A:  GOTO   049
004B:  GOTO   04C
004C:  NOP
004D:  RETURN
.................... } 
....................  
.................... //XXXXXXXXXXXXXXXXXXXXXX TRUYEN DU LIEU CAN HIEN THI RA LCD XXXXXXXXXXXXXXXXXXXXXX 
.................... VOID GLCD_DATA(UNSIGNED CHAR MHT) 
.................... { 
....................    OUTPUT_HIGH(GLCD_RS);     OUTPUT_GLCD(MHT); 
*
008D:  BSF    03.5
008E:  BCF    06.2
008F:  BCF    03.5
0090:  BSF    06.2
0091:  BSF    03.5
0092:  CLRF   08
0093:  BCF    03.5
0094:  MOVF   24,W
0095:  MOVWF  08
....................    OUTPUT_HIGH(GLCD_E);     DELAY_US(20); 
0096:  BSF    03.5
0097:  BCF    06.0
0098:  BCF    03.5
0099:  BSF    06.0
009A:  MOVLW  20
009B:  MOVWF  77
009C:  DECFSZ 77,F
009D:  GOTO   09C
009E:  GOTO   09F
009F:  NOP
....................    OUTPUT_LOW(GLCD_E);     DELAY_US(20); 
00A0:  BSF    03.5
00A1:  BCF    06.0
00A2:  BCF    03.5
00A3:  BCF    06.0
00A4:  MOVLW  20
00A5:  MOVWF  77
00A6:  DECFSZ 77,F
00A7:  GOTO   0A6
00A8:  GOTO   0A9
00A9:  NOP
00AA:  RETURN
.................... } 
....................  
.................... VOID SETUP_GLCD (INT8 GLCD_FUNCTION_SET_MODE) 
.................... {                      
....................          OUTPUT_LOW(GLCD_E);  
*
004E:  BSF    03.5
004F:  BCF    06.0
0050:  BCF    03.5
0051:  BCF    06.0
....................          OUTPUT_LOW(GLCD_RW); 
0052:  BSF    03.5
0053:  BCF    06.1
0054:  BCF    03.5
0055:  BCF    06.1
....................          OUTPUT_LOW(GLCD_RS); 
0056:  BSF    03.5
0057:  BCF    06.2
0058:  BCF    03.5
0059:  BCF    06.2
....................          GLCD_COMMAND(GLCD_FUNCTION_SET_MODE);          
005A:  MOVF   21,W
005B:  MOVWF  22
005C:  CALL   030
....................          DELAY_US(10); 
005D:  MOVLW  10
005E:  MOVWF  77
005F:  DECFSZ 77,F
0060:  GOTO   05F
0061:  NOP
....................          GLCD_COMMAND(GLCD_CURSOR_DISPLAY);        
0062:  MOVLW  0C
0063:  MOVWF  22
0064:  CALL   030
....................          DELAY_US(10);     
0065:  MOVLW  10
0066:  MOVWF  77
0067:  DECFSZ 77,F
0068:  GOTO   067
0069:  NOP
....................          GLCD_COMMAND(GLCD_CLEAR_DISPLAY);       
006A:  MOVLW  01
006B:  MOVWF  22
006C:  CALL   030
....................          DELAY_MS(2); 
006D:  MOVLW  02
006E:  MOVWF  22
....................          GLCD_COMMAND(GLCD_ENTRY_MODE);       
*
0082:  MOVLW  06
0083:  MOVWF  22
0084:  CALL   030
....................          DELAY_US(10);                           
0085:  MOVLW  10
0086:  MOVWF  77
0087:  DECFSZ 77,F
0088:  GOTO   087
0089:  NOP
008A:  BCF    0A.3
008B:  BCF    0A.4
008C:  GOTO   11E (RETURN)
.................... } 
....................  
....................   
....................  
....................  
....................  
.................... UNSIGNED INT8 I; 
.................... //CONST UNSIGNED INT16 HANG[]={0X0460,0XFE40,0X1044,0X107E,0X2484,0X3C84,0X6548,0XA648,0X2450,0X2410,0X2420,0X3C20,0X2440,0X0080,0X0100,0X0000}; 
....................  
.................... CONST UNSIGNED CHAR HANG[]={0X04,0X60,0XFE,0X40,0X10,0x44,0X10,0x7E,0X24,0x84,0X3C,0x84,0X65,0x48,0XA6,0x48,0X24,0x50,0X24,0x10,0X24,0x20,0X3C,0x20,0X24,0x40,0X00,0x80,0X01,0x00,0X00,0x00}; 
....................  
.................... VOID MAIN() 
*
0103:  MOVF   03,W
0104:  ANDLW  1F
0105:  MOVWF  03
0106:  BSF    03.5
0107:  BSF    03.6
0108:  MOVF   09,W
0109:  ANDLW  C0
010A:  MOVWF  09
010B:  BCF    03.6
010C:  BCF    1F.4
010D:  BCF    1F.5
010E:  MOVLW  00
010F:  BSF    03.6
0110:  MOVWF  08
0111:  BCF    03.5
0112:  CLRF   07
0113:  CLRF   08
0114:  CLRF   09
0115:  BCF    03.7
.................... { 
....................    SET_TRIS_D(0X00); 
0116:  MOVLW  00
0117:  BSF    03.5
0118:  BCF    03.6
0119:  MOVWF  08
....................    
....................    SETUP_GLCD(GLCD_TEXT_MODE); 
011A:  MOVLW  30
011B:  BCF    03.5
011C:  MOVWF  21
011D:  GOTO   04E
....................     
....................    GLCD_COMMAND(0x40); 
011E:  MOVLW  40
011F:  MOVWF  22
0120:  CALL   030
....................    FOR(I=0;I<32;I++) 
0121:  CLRF   20
0122:  MOVF   20,W
0123:  SUBLW  1F
0124:  BTFSS  03.0
0125:  GOTO   12D
....................    { 
....................       GLCD_DATA(HANG[I]); 
0126:  MOVF   20,W
0127:  CALL   004
0128:  MOVWF  21
0129:  MOVWF  24
012A:  CALL   08D
012B:  INCF   20,F
012C:  GOTO   122
....................    } 
....................     
....................    GLCD_COMMAND(0x80);   
012D:  MOVLW  80
012E:  MOVWF  22
012F:  CALL   030
....................    GLCD_DATA("HUYNH NHAT TUNG"); 
0130:  MOVLW  28
0131:  BSF    03.6
0132:  MOVWF  0D
0133:  MOVLW  00
0134:  MOVWF  0F
0135:  BCF    03.6
0136:  GOTO   0AB
....................     
....................    GLCD_COMMAND(0x90);   
0137:  MOVLW  90
0138:  MOVWF  22
0139:  CALL   030
....................    GLCD_DATA(0); 
013A:  CLRF   24
013B:  CALL   08D
....................    WHILE(TRUE) 
....................    { 
013C:  GOTO   13C
....................            
....................    } 
.................... } 
013D:  SLEEP

Configuration Fuses:
   Word  1: 2FE2   HS NOWDT PUT MCLR NOPROTECT NOCPD BROWNOUT IESO FCMEN NOLVP NODEBUG
   Word  2: 3FFF   BORV40 NOWRT
