:1000000000308A00DE2800000A108A100A118207D8
:10001000FE34FD34FB34F734FF30B400B300B501D7
:10002000B51B16283508033C031C4228350804205C
:10003000B6008316860183123608860083160616DC
:100040008312061A2628B4014228402883168616F1
:100050008312861A2F280130B400422840288316C4
:1000600006178312061B38280230B40042284028A5
:10007000831686178312861B40280330B40042285B
:10008000B50A1028340F452870283508B60004300A
:10009000B700F701F801360803103718F707F70C17
:1000A000F80CB718F707F70CF80C3719F707F70C27
:1000B000F80CB719F707F70CF80C371AF707F70C15
:1000C000F80CB71AF707F70CF80C371BF707F70C03
:1000D000F80CB71BF707F70CF80C34087807B300D7
:1000E0003308F80008003430840083130008031933
:1000F00086280630F800F701F70B7C28F80B7B28E0
:100100007B30F700F70B8228800B79280800B101BB
:10011000B2010C207808B100310F8F289C280130E3
:10012000B40073200C207808B1000C207808B200CD
:1001300031083202031995283108F8008A110A1291
:100140000629A108031DD4282008053C031CD42837
:100150000030B00083168701831224088700B301A2
:1001600083168801831225088800240DB200250D0E
:10017000B300B20DB30DB20DB30DF830B205383087
:10018000B2043208F839A40033081F39A500310839
:10019000B200B301320833020318D3280A30B40086
:1001A0007320B30ACA28D828A101A001A501A4017F
:1001B000A00A0319A10A8A110A12102903081F397B
:1001C0008300FF30B000831603170908C039890087
:1001D00003131F129F120030031788008312870138
:1001E000880189018313003083160313870083126B
:1001F000B00083168800F0308600950081138312CA
:10020000A501A401A7010230A60087287808AF0045
:100210002F0F0B2910292F0B10296430B100A128B2
:040220000529630049
:04400E00E22FFF3F5F
:00000001FF
;PIC16F887
;CRC=C008  CREATED="08-Thg10-16 10:05"
