:1000000003308A00C62B00000A108A100A118207EA
:10001000003401340234053403340434013402342E
:1000200020340334073403340634063402340534F0
:100030000334033406340634023403340334043402
:1000400007340334073420342034073407340634AB
:1000500006340334033404340034063406340534DF
:100060000334043401340134073420342034073499
:1000700000340634023405340334043400340634C6
:100080000234033403340434203420342034203444
:100090002034203400340134013405340334033473
:1000A0000034063402342034203420340A108A10FC
:1000B0000A11820707340F341F341F341F341F34D2
:1000C0001F341F341F341F341F34003400340034F5
:1000D000003400341C341E341F341F341F341F34CA
:1000E0001F341F34003400340034003400341F3413
:1000F0001F341F341F341F341F341F341F341F3468
:100100001E341C341F341F341F341F341F341F345B
:100110000F3407341F341F341F34003400340034CC
:100120001F341F341F341F341F341F341F341F3437
:100130001F341F340A108A100A1182078034C03419
:100140009434D4348316881283128812831686015D
:100150008312310886008316881383128817203093
:10016000F700F70BB128B428000083168813831218
:1001700088132030F700F70BBB28BE2800000800CA
:1001800028308400831300080319D3280630F800B0
:10019000F701F70BC928F80BC8287B30F700F70BDD
:1001A000CF28800BC6280800831688138312881373
:1001B0008316881283128812831608138312081379
:1001C0003830B100A2204230F700F70BE5280000DC
:1001D0000C30B100A2204230F700F70BED280000F0
:1001E0000130B100A2200230A800C0200630B100CA
:1001F000A2202830A800C0208A110A12E42B8316FE
:100200008812831288168316860183122E088600B0
:1002100083168813831288172030F700F70B0E29F6
:100220001129000083168813831288132030F700E9
:10023000F70B18291B29000008004030B100A2204C
:100240002030F700F70B222925290000A101210801
:100250003F3C031C322921085620A800AE00FF2095
:10026000A10A27298A110A12F82B8E30F7002908D3
:10027000F8002808F900FA01F808031D492979084F
:10028000F800F9010830F702F808031D4929F701C1
:1002900051290310F81B5029F90DF80DF7034929CE
:1002A000F81308002C080319172AB800300803199E
:1002B000172AB802031C61297F30B8070318172AD0
:1002C00067298130B802031C172A0319172A380836
:1002D000F700F801F901FA01B7012D08B600B617C9
:1002E0002E08B5002F08B4001930B8003308B40246
:1002F00003188A290130B50203188A29B6020318A7
:100300008A29B70203188A29B70AB60AB50A330838
:10031000B407BC293208B5020318A5290130B6027A
:100320000318A529B7020318A529B70AB60A320887
:10033000B5073308B407031CBC29B50A031DBC2943
:10034000B60A031DBC29B70ABC2931088038B60299
:100350000318BB290130B7020318BB29B70A3108BB
:100360008038B6073208B507031C9929B60A031D61
:100370009929B70A99297A14B80BBF29CA290310F9
:10038000B40DB50DB60DB70D0310FA0DF90DF80D3E
:10039000B90D7629391CD2290310F80CF90CFA0C86
:1003A000B90CD529F7030319172AB91BFE29031025
:1003B000B40DB50DB60DB70D3308B4020318EA2914
:1003C0000130B5020318EA29B6020318EA29B70278
:1003D000031C0D2A3208B5020318F5290130B602B4
:1003E0000318F529B702031C0D2A31088038B6021C
:1003F0000318FE290130B702031C0D2AFA0A031D57
:100400000D2AF90A031D0D2AF80A031D0D2AF70A01
:100410000319172AF80CF90CFA0C2D08B80031084A
:10042000B806B81F152AF8171B2AF8131B2AF7015C
:10043000F801F901FA0108008E30F7002808F702E8
:100440002908F9002A08F800F917F7080319332AD0
:100450000310F908031D2F2AF8080319332AF90C91
:10046000F80CF70B282AA91F3A2AF809F909F80A03
:100470000319F90A08000030F8001F08C33978048E
:100480009F00A501A401A2012208633C031C582A75
:100490009F149F18492A83161E088312A4071E085A
:1004A00003181E0FA5070130A800C020A20A442A85
:1004B0002508A9002408A80035217A08AF0079088A
:1004C000AE007808AD007708AC00AA30B300F13078
:1004D000B2000230B1008030B00052217A08AB0087
:1004E0007908AA007808A9007708A8007A08AF0060
:1004F0007908AE007808AD007708AC00B301B2010E
:100500004830B1008530B00052217A08AB0079083C
:10051000AA007808A9007708A8001C227908A5007D
:100520007808A4008A110A12F92B0430F8001F0879
:10053000C33978049F00A701A601A2012208633CE9
:10054000031CB22A9F149F18A32A83161E08831225
:10055000A6071E0803181E0FA7070130A800C02019
:10056000A20A9E2A2708A9002608A80035217A0891
:10057000AF007908AE007808AD007708AC00AA306B
:10058000B300F130B2000230B1008030B00052212F
:100590007A08AB007908AA007808A9007708A800B3
:1005A0007A08AF007908AE007808AD007708AC0093
:1005B000B301B2014830B1008530B00052217A0851
:1005C000AB007908AA007808A9007708A8001C22C7
:1005D0007908A7007808A6008A110A12FA2BF801F8
:1005E000F901F701FA012B08031DF92A2A0803195A
:1005F000132B1030AC000310A80DA90DF70DFA0D48
:100600002B087A02031D062B2A087702031C0F2BE6
:100610002A08F702031CFA032B08FA020314F80D48
:10062000F90DAC0BFB2A08002E089A202F07B0000A
:10063000B100A22008002B08AE002C08AF00142344
:10064000A0012008053C031C602B2008033C031D6F
:10065000302B01302B07AD00AE002C08AF00142367
:100660002A08AD000630AE00F701F8012D0803108E
:100670002E18F707F70CF80CAE18F707F70CF80C64
:100680002E19F707F70CF80CAE19F707F70CF80C52
:100690002E1AF707F70CF80CAE1AF707F70CF80C40
:1006A0002E1BF707F70CF80CAE1BF707F70CF80C2E
:1006B000200878070420AD00AE00FF20A00A212BFF
:1006C00008002508A9002408A800AB010A30AA00E8
:1006D000EF227908A9007808A800AA00AB0105302C
:1006E000AC001B232508A9002408A800AB010A3090
:1006F000AA00EF227708A8007A08A9007708AA00C4
:10070000AB010930AC001B230B30AA00AB01113048
:10071000AC001B230C30AA00AB010D30AC001B2336
:100720002708A9002608A800AB010A30AA00EF227A
:100730007908A9007808A800AA000230AB000530AB
:10074000AC001B232708A9002608A800AB010A302B
:10075000AA00EF227708A8007A08A9007708AA0063
:100760000230AB000930AC001B230B30AA00023072
:10077000AB001130AC001B230C30AA000230AB00E0
:100780000D30AC001B238A110A12FB2B03081F3902
:100790008300831603170908C039890003131F1249
:1007A0009F12003003178800831287018801890196
:1007B00083130030831603138800860003308500FE
:1007C00028308312A300D4281F139F1783169F1766
:1007D00083121F14831603170908C03989000313F5
:1007E0001F129F12033003178800831203131D2961
:0A07F0003B2A952A612BF82B6300C9
:04400E00E22FFF3F5F
:00000001FF
;PIC16F887
;CRC=F88D  CREATED="18-Thg10-16 20:41"
