:1000000000308A0095280000FF00030E8301A10044
:100010000A08A0008A010408A2007708A300780853
:10002000A4007908A5007A08A600831383128C30F7
:100030008400001C1D280C182E2822088400230888
:10004000F7002408F8002508F9002608FA0020081F
:100050008A00210E8300FF0E7F0E09008A110A120A
:1000600045280A108A100A118207C034F934A434D2
:10007000B034993492348234F834803490348834F3
:100080008334C634A13486348E348E010B308F0015
:10009000DC308E00A90A0C108A110A121D282F08C4
:1000A000F8012E02031857282E08F7006328F701DD
:1000B0000830B000AE0DF70D2F0877020318F700D7
:1000C000F80DB00B5A2808003308B500B401340805
:1000D000073C031C7D28B51B6F28081170280815E4
:1000E00083160811881083128810831688108312D3
:1000F00088140310B50DB40A672808003208B3004D
:1001000064203108B30064203008B30064202F0855
:10011000B300642083168811831288118316881116
:10012000831288158A110A12FA2803081F398300DE
:10013000FF30AA00831603170908C039890003138A
:100140001F129F1200300317880083128701880155
:1001500089018313003083160313880087008312FC
:10016000AA00353090008E010B308F00DC308E00FD
:10017000C0308B0483160C148312A701A801A901B7
:100180002908093C0318D128A901A70A27083C3CE3
:10019000031DD028A701A80A28083C3C0319A80180
:1001A000FA282808AE000A30AF004F207808312026
:1001B000AB002808AE000A30AF004F20770831208E
:1001C000AC002708AE000A30AF004F20780831207D
:1001D000AD002708AE000A30AF004F20770831206D
:1001E000AE002B08AF002C08B0002D08B1002E087F
:0801F000B2007E28C028630064
:04400E00E22FFF3F5F
:00000001FF
;PIC16F887
;CRC=E893  CREATED="22-Thg9-16 18:27"
