:1000000002308A00252A00005530A7003330A600B0
:100010000830A500A4001630A3000630A20013305B
:10002000A1009030A9009830A8008A110A12442A31
:100030000830F8000430F700F70B1C288711A011D6
:100040002008831687000330F700F70B252883125A
:10005000AD0D0712031C32282016200883168700D6
:10006000362883122012200883168700000083128E
:10007000A0152008831687008312871D3D28F80BE2
:100080001A280430F700F70B43288711A011200825
:10009000831687000000831220162008831687002D
:1000A0000330F700F70B52280330F700F70B562800
:1000B0008312A0152008831687008312871D5E28EF
:1000C000F8010330F700F70B6328071A781487113B
:1000D000A01120088316870083120712201220081F
:1000E00083168700831208002016200883168700D5
:1000F0000430F700F70B7A288312A0152008831626
:1001000087000330F700F70B8328831207122012B1
:100110002008831687000430F700F70B8D28831220
:100120008711A011200883168700D0308312AD00FC
:100130001820AD0118202708AD0018202608AD00B2
:1001400018202508AD0018202408AD001820230829
:10015000AD0018202208AD0018202108AD0018209D
:100160002908AD0018202808AD001820201220080A
:100170008316870000008312A015200883168700CD
:100180008312871DC1280430F700F70BC528C82843
:10019000000020162008831687000430F700F70BB4
:1001A000CF2883128A110A12452A0830AE00770838
:1001B000AF0020162008831687000330F700F70BE6
:1001C000DF288312A0152008831687008312871D5D
:1001D000E728071A0314071E0310F80D0430F70070
:1001E000F70BF028A01120088316870083128711CF
:1001F000AE0BD92820162008831687000330F7009D
:10020000F70B0029831207122F0803190C2920125B
:1002100020088316870083120000A015200883168B
:1002200087008312871D12290430F700F70B162967
:100230008711A0112008831687000330F700F70B01
:100240001F298312071220122008831687008312A9
:10025000080020162008831687000430F700F70BEB
:100260002F298312A0152008831687000330F7007A
:10027000F70B3829831207122012200883168700F3
:100280000430F700F70B422983128711A0112008D0
:1002900083168700D0308312AD001820AD011820DE
:1002A00020162008831687000430F700F70B562924
:1002B0008312A0152008831687000330F700F70B80
:1002C0005F298312871D62290712201220088316D6
:1002D00087000430F700F70B6B2983128711A011F8
:1002E000200883168700D1308312AD00182001301A
:1002F000F700D5207808A7000130F700D52078084E
:10030000A6000130F700D5207808A5000130F700DD
:10031000D5207808A4000130F700D5207808A30084
:100320000130F700D5207808A2000130F700D52071
:100330007808A1000130F700D5207808A900F7015E
:10034000D5207808A8002012200883168700000016
:100350008312A0152008831687008312871DAE29FB
:100360000430F700F70BB229B52900002016200849
:10037000831687000430F700F70BBC2983120800AE
:100380003208B400B3013308073C031CD929B41B5D
:10039000CB290811CC29081583160811881083125F
:1003A000881083168810831288140310B40DB30AC2
:1003B000C32908003008B200C0212F08B200C021B4
:1003C0002E08B200C0212D08B200C021831688116A
:1003D0008312881183168811831288158A110A12D4
:1003E0004E2A270EAB000F30AB0527080F39AC00A3
:1003F0008A110A12562AFF30AD00AE002B08AF005A
:100400002C08B0003008B100B1093108B200C02199
:100410002F08B100B1093108B200C0212E08B10087
:10042000B1093108B200C0212D08B100B10931086D
:10043000B200C02183168811831288118316881197
:10044000831288158A110A12572A03081F3983005C
:10045000FF30A000831603170908C0398900031371
:100460001F129F1200300317880083128701880132
:100470008901831300308316031388008312280830
:10048000983C0319452A0428742829212708AA0022
:10049000FF30AD00AE00AF00B000DA2929212708F7
:1004A0002A020319572A2708AA00F129FB294E2AF4
:0204B0006300E7
:04400E00E22FFF3F5F
:00000001FF
;PIC16F887
;CRC=7471  CREATED="30-Thg10-16 00:17"
