:1000000003308A00AB2B0000FF00030E8301A10028
:100010000A08A0008A010408A2007708A300780853
:10002000A4007908A5007A08A60003170D08031399
:10003000A70003170F080313A80003170C080313E6
:10004000A90003170E080313AA00831383128C3030
:100050008400001C2D280C184E2822088400230838
:10006000F7002408F8002508F9002608FA002708F8
:1000700003178D000313280803178F0003132908A3
:1000800003178C0003132A0803178E00031320089C
:100090008A00210E8300FF0E7F0E09008A110A12CA
:1000A000E3280A108A100A1182070034013402344E
:1000B0000534033404340134023420340334073467
:1000C000033406340634023405340334033406346E
:1000D000063402340334033404340734033407345D
:1000E0002034203407340734063406340334033410
:1000F0000434003406340634053403340434013443
:1001000001340734203420340734003406340234F8
:100110000534033404340034063402340334033425
:1001200004342034203420342034203420340A1085
:100130008A100A11820707340F341F341F341F340A
:100140001F341F341F341F341F341F340034003455
:100150000034003400341C341E341F341F341F3468
:100160001F341F341F340034003400340034003492
:100170001F341F341F341F341F341F341F341F34E7
:100180001F341E341C341F341F341F341F341F34DB
:100190001F340F3407341F341F341F34003400342D
:1001A00000341F341F341F341F341F341F341F34D6
:1001B0001F341F341F340A108A100A11820780343A
:1001C000C0349434D4348E010B308F00DC308E0078
:1001D000B00A0C108A110A122D28C82A5927481073
:1001E0004E24412A202A55274710201020100000B5
:1001F0003A003A003A003A002000200083168812A4
:10020000831288128316860183123F0886008316A4
:100210008813831288172030F700F70B0D29102957
:10022000000083168813831288132030F700F70B21
:1002300017291A29000008003930840083130008A8
:1002400003192F290630F800F701F70B2529F80BC1
:1002500024297B30F700F70B2B29800B222908007B
:1002600083168813831288138316881283128812C8
:1002700083160813831208133830BF00FE20423063
:10028000F700F70B412900000C30BF00FE20423080
:10029000F700F70B492900000130BF00FE200230B3
:1002A000B9001C210630BF00FE202830B9001C21F7
:1002B0008A110A12C42B3908F8013802031863297D
:1002C0003808F7006F29F7010830BA00B80DF70DAC
:1002D000390877020318F700F80DBA0B66290800F1
:1002E00083168812831288168316860183123C08AF
:1002F000860083168813831288172030F700F70BC7
:100300007F298229000083168813831288132030E6
:10031000F700F70B89298C29000008000B08B800AA
:100320008B13831603178C170C1400000000831224
:100330000313B81B8B1703170C087F390319E22925
:100340000313B80003170D080313B90003170F08B0
:100350000313BA003808BC007021390803178D0058
:1003600003133A0803178F0003130B08BB008B130A
:10037000831603178C170C1400000000831203135C
:10038000BB1B8B1703170C0D0E0D7F390319E229C8
:100390000313B80003170D080313B90003170F0860
:1003A0000313BA003808BC007021390803178D0008
:1003B00003133A0803178F008D0A03198F0A0313DA
:1003C0008E290317031308003C08DB203D07BE00FD
:1003D000BF00FE2008003908BC003A08BD00E42137
:1003E000AB012B08053C031C302A2B08033C031DE2
:1003F000002A01303907BB00BC003A08BD00E421E7
:100400003808BB000630BC00F701F8013B080310B8
:100410003C18F707F70CF80CBC18F707F70CF80CAA
:100420003C19F707F70CF80CBC19F707F70CF80C98
:100430003C1AF707F70CF80CBC1AF707F70CF80C86
:100440003C1BF707F70CF80CBC1BF707F70CF80C74
:100450002B0878075120BB00BC007021AB0AF129A2
:1004600008002D08B8000A30B9005B217808B100F7
:100470002D08B8000A30B9005B217708B2002E08B9
:10048000B8000A30B9005B217808B3002E08B80024
:100490000A30B9005B217708B4002F08B8000A3091
:1004A000B9005B217808B5002F08B8000A30B90000
:1004B0005B217708B6008030BF00FE20ED300317C7
:1004C0008D0000308F0003138E213108B8000130F9
:1004D000B900BA01EB213208B8000130B90003308D
:1004E000BA00EB213308B8000130B9000730BA0078
:1004F000EB213408B8000130B9000A30BA00EB2112
:100500000130BC000D30BD00E421F83003178D0030
:1005100000308F0003138E210230BC000D30BD006F
:10052000E421F93003178D0000308F0003138E2172
:100530003508B8000130B9000E30BA00EB2136089A
:10054000B8000130B9001130BA00EB21080040308A
:10055000BF00FE202030F700F70BAC2AAF2A0000C6
:10056000AC012C083F3C031CBC2A2C089720B80087
:10057000BC007021AC0AB12A8A110A12D62B370BA3
:10058000DB2A0130BC00BD01E4210A30B10001309A
:10059000BC000330BD00E4210A30B2003108B800CD
:1005A0000130B900BA01EB213208B8000130B900BE
:1005B0000330BA00EB213708023C031DFB2A01304F
:1005C000BC000730BD00E4210A30B3000230BC009B
:1005D0000730BD00E4210A30B4003308B800013010
:1005E000B9000730BA00EB213408B8000130B90077
:1005F0000A30BA00EB213708033C031D1B2B0130E6
:10060000BC000E30BD00E4210A30B5000230BC0051
:100610000E30BD00E4210A30B6003508B8000130C4
:10062000B9000E30BA00EB213608B8000130B9002D
:100630001130BA00EB218A110A12DC2B831609143F
:1006400083120918352B1430B9001C2183160914A4
:1006500083120918302BB70A3708043C0319B70175
:10066000831609148312091C302B8A110A12DD2B00
:1006700083168914831289186F2B1430B9001C213A
:1006800083168914831289186F2B3708013A0319CE
:10069000502B033A0319582B013A0319602B682B8E
:1006A0002D08173C031D562BAD01572BAD0A682BA7
:1006B0002E083B3C031D5E2BAE015F2BAE0A682B60
:1006C0002F083B3C031D662BAF01672BAF0A682B3D
:1006D0000230B800FA30B9001C21B80B6A2B8A111D
:1006E0000A12DE2B8316091583120919A82B143060
:1006F000B9001C218316091583120919A82B370884
:10070000013A03198A2B033A0319922B013A031970
:100710009A2BA12BAD08031D902B1730AD00912B08
:10072000AD03A12BAE08031D982B3B30AE00992BD7
:10073000AE03A12BAF08031DA02B3B30AF00A12BB4
:10074000AF030230B800FA30B9001C21B80BA32B5C
:100750008A110A12DF2B03081F398300831603173F
:100760000908C039890003131F129F1200300317B4
:100770008800831287018801890183130030831662
:100780000313880083123029AF01AE01AD01B0011F
:100790003122353090008E010B308F00DC308E001E
:1007A000C0308B0483160C148312A72A3008093C2E
:1007B000031C152C3122BF2A1E2B382B722B30081C
:1007C000043C031CFC2B0130BC000630BD00E421BE
:1007D000FA3003178D0000308F0003138E21023092
:1007E000BC000630BD00E421FB3003178D00003053
:1007F0008F0003138E21142C0130BC000630BD0085
:10080000E421FC3003178D0000308F0003138E218C
:100810000230BC000630BD00E421FD3003178D001E
:1008200000308F0003138E21282C0A30B002AF0A4B
:100830002F083C3C031D282CAF01AE0A2E083C3C7F
:10084000031D282CAE01AD0A2D08183C0319AD017B
:04085000D62B630040
:04400E00E22FFF3F5F
:00000001FF
;PIC16F887
;CRC=2FA6  CREATED="18-Thg10-16 20:17"
