:1000000001308A00602900000A108A100A11820754
:10001000C034F934A434B034993492348234F8348E
:100020008034903488348334C634A13486348E349A
:10003000F801F901F701FA013008031D22282F0801
:1000400003193C281030B1000310AD0DAE0DF70DB3
:10005000FA0D30087A02031D2F282F087702031C9F
:1000600038282F08F702031CFA033008FA02031499
:10007000F80DF90DB10B242808003408B600B501BD
:100080003508073C031C5628B61B48280811492888
:10009000081583160811881083128810831688109B
:1000A000831288140310B60DB50A402808003308DF
:1000B000B4003D203208B4003D203108B4003D209A
:1000C0003008B4003D2083168811831288158316EA
:1000D000881183128811080029082A068039AC008B
:1000E000A91F7428A909A90AAA1F7828AA09AA0A77
:1000F0002A08F8012902031880282908F7008C280B
:10010000F7010830AB00A90DF70D2A087702031894
:10011000F700F80DAB0B8328AC1F9028F809F80AFC
:10012000080028308400831300080319A42806302F
:10013000F800F701F70B9A28F80B99287B30F700A5
:10014000F70BA028800B97280800A201A21BAC285F
:100150002208143C031CF228A21BB2282208133CDC
:10016000031CCD282208A9000A30AA006C207808B8
:100170000420A7002208A9000A30AA006C207708F2
:100180000420A800FF30B000B1002708B200280802
:10019000B30057206430A80091202208143C031DAE
:1001A000F0282208A9000A30AA006C207808042050
:1001B000A7002208A9000A30AA006C2077080420B2
:1001C000A800FF30B000B1002708B2002808B30033
:1001D00057200830A700FA30A8009120A70BEB2881
:1001E000A20AA6288A110A12CB291430A1002108DC
:1001F000803A7F3C03185D29A11B2B292108003C74
:1002000003182B292108A9006430AA006C20780863
:100210000420A7002108A9000A30AA006C20780851
:10022000A9000A30AA006C2077080420A800210841
:10023000A9000A30AA006C2077080420A900FF302A
:10024000B0002708B1002808B2002908B3005720E1
:100250006430A8009120A108031D5B292108A90092
:100260006430AA006C2078080420A7002108A900A7
:100270000A30AA006C207808A9000A30AA006C2075
:1002800077080420A8002108A9000A30AA006C20E1
:1002900077080420A900FF30B0002708B100280823
:1002A000B2002908B30057200830A700FA30A80090
:1002B0009120A70B5629A103F7288A110A12CC29ED
:1002C00003081F398300A001831603170908C039EA
:1002D000890003131F129F12003003178800831236
:1002E0008701880189018313003083160313880076
:1002F0000108C7392838810083128101A401A301B4
:100300002408A6002308A5002408AE002308AD0099
:10031000B0016430AF0018207908A8007808A70061
:100320007908FA0078080420A9002408AE00230800
:10033000AD00B0010A30AF0018207908AB00780892
:10034000AA007908AE007808AD00B0010A30AF000D
:1003500018207708AA007A08AB00FA007708042072
:10036000AC002408AE002308AD00B0010A30AF0095
:1003700018207708AD007A08AE00FA00770804204C
:10038000AF00FF30B0002908B1002C08B2002F08E0
:0C039000B3005720A528F528CA296300F7
:04400E00E22FFF3F5F
:00000001FF
;PIC16F887
;CRC=D3FC  CREATED="04-Sep-16 09:47"
