:1000000001308A005F2900000A108A100A11820755
:10001000C034F934A434B034993492348234F8348E
:100020008034903488348334C634A13486348E349A
:10003000243084008313000803192B280630F800AD
:10004000F701F70B2128F80B20287B30F700F70B7E
:100050002728800B1E288A110A12A8298E30F70043
:100060002508F8002408F900FA01F808031D4228C1
:100070007908F800F9010830F702F808031D422852
:10008000F7014A280310F81B4928F90DF80DF7036A
:100090004228F8138A110A12AF29240803191229D9
:1000A000B000280803191229B002031C5C287F3015
:1000B000B0070318122962288130B002031C1229EC
:1000C000031912293008F700F801F901FA01AF010C
:1000D0002508AE00AE172608AD002708AC00193081
:1000E000B0002B08AC02031885280130AD020318BC
:1000F0008528AE0203188528AF0203188528AF0AA9
:10010000AE0AAD0A2B08AC07B7282A08AD020318BF
:10011000A0280130AE020318A028AF020318A028BF
:10012000AF0AAE0A2A08AD072B08AC07031CB72894
:10013000AD0A031DB728AE0A031DB728AF0AB728BA
:1001400029088038AE020318B6280130AF02031820
:10015000B628AF0A29088038AE072A08AD07031C65
:100160009428AE0A031D9428AF0A94287A14B00B81
:10017000BA28C5280310AC0DAD0DAE0DAF0D0310A0
:10018000FA0DF90DF80DB10D7128311CCD280310B1
:10019000F80CF90CFA0CB10CD028F703031912294A
:1001A000B11BF9280310AC0DAD0DAE0DAF0D2B0832
:1001B000AC020318E5280130AD020318E528AE02B1
:1001C0000318E528AF02031C08292A08AD0203180A
:1001D000F0280130AE020318F028AF02031C0829F2
:1001E00029088038AE020318F9280130AF02031C39
:1001F0000829FA0A031D0829F90A031D0829F80A23
:10020000031D0829F70A03191229F80CF90CFA0C36
:100210002508B0002908B006B01F1029F8171629C4
:10022000F8131629F701F801F901FA018A110A12E7
:10023000C0298E30F7002408F7022508F9002608A7
:10024000F800F917F708031930290310F908031DFE
:100250002C29F80803193029F90CF80CF70B25297B
:10026000A51F3729F809F909F80A0319F90A8A11AB
:100270000A12C929F801F901F701FA012708031D3B
:100280004429260803195E291030A8000310A40D84
:10029000A50DF70DFA0D27087A02031D512926082E
:1002A0007702031C5A292608F702031CFA032708C1
:1002B000FA020314F80DF90DA80B462908000308EB
:1002C0001F398300831603170908C03989000313F7
:1002D0001F129F12003003178800831287018801C4
:1002E00089018313003083160313860088000130D0
:1002F000850083121F139F1783169F1783121F14E5
:10030000831603170908C039890003131F129F12AF
:100310000130031788000030F800831203131F0810
:10032000C33978049F00A301A201A0012008633C07
:10033000031CAA299F149F189B2983161E08831249
:10034000A2071E0803181E0FA3070130A4001828D7
:10035000A00A96292308A5002208A4002E287A08BE
:10036000A7007908A6007808A5007708A400AA309D
:10037000AB00F130AA000230A9008030A8004D285F
:100380007A08A7007908A6007808A5007708A400D5
:1003900019297908A3007808A2002308A5002208DB
:1003A000A400A7016430A6003A217908A3007808C8
:1003B000A2002308A5002208A400A7010A30A60075
:1003C0003A217908A5007808A4007908FA0078088D
:1003D0000420F800A1002108C03C031DF129FF30D2
:1003E000A1002308A5002208A400A7010A30A60046
:1003F0003A217708A4007A08A500FA0077080420BB
:10040000A6008316860183122608860083168801BB
:0A041000831221088800932963007D
:04400E00E22FFF3F5F
:00000001FF
;PIC16F887
;CRC=D582  CREATED="26-Thg9-16 21:53"
