:1000000000308A005E2800000A108A100A11820758
:10001000C034F934A434B034993492348234F8348E
:100020008034903488348334C634A13486348E349A
:100030002608F8012502031820282508F7002C2897
:10004000F7010830A700A50DF70D26087702031861
:10005000F700F80DA70B232808002808AA00A9011B
:100060002908073C031C4628AA1B382808113928F0
:1000700008158316081188108312881083168810BB
:10008000831288140310AA0DA90A30280800270833
:10009000A8002D202608A8002D202508A8002D2026
:1000A0002408A8002D208316881183128811831636
:1000B0008811831288158A110A12B52803081F397E
:1000C0008300831603170908C039890003131F1220
:1000D0009F1200300317880083128701880189016D
:1000E000831300308316031388000108C7392838AA
:1000F000810083128101A301A201A1010108A000D6
:100100002008A5000A30A600182077080420F8006F
:10011000A1002008A5000A30A60018207808A50034
:100120000A30A600182077080420F800A200200852
:10013000A5006430A600182078080420F800A30069
:100140002308C03C031DAC28FF30A3002208C03C9C
:10015000031DAC28FF30A200FF30A4002308A50037
:100160002208A6002108A70047282008783C031D84
:0A017000BB28013081007E286300E7
:04400E00E22FFF3F5F
:00000001FF
;PIC16F887
;CRC=F707  CREATED="16-Thg9-16 18:00"
