:1000000000308A00742800000A108A100A11820742
:10001000C034F934A434B034993492348234F8348E
:100020008034903488348334C634A13486348E349A
:100030002808F8012702031820282708F7002C2891
:10004000F7010830A900A70DF70D2808770203185B
:10005000F700F80DA90B232808002630840083132D
:100060000008031940280630F800F701F70B36287E
:10007000F80B35287B30F700F70B3C28800B332832
:1000800008008316860183122308860083168812CF
:10009000831288120130A6002D2083168812831245
:1000A0008816831686018312220886008316081399
:1000B000831208130130A6002D2083160813831223
:1000C0000817831686018312210886008316881379
:1000D000831288130130A6002D2083168813831203
:1000E00088178A110A12C12803081F398300831652
:1000F00003170908C039890003131F129F1200302B
:100100000317880083128701880189018313003057
:1001100083160313880086000108C7392838810038
:10012000831281010108A0002008A7000A30A8005E
:10013000182077080420F800A1002008A7000A3042
:10014000A80018207808A7000A30A800182077080F
:100150000420F800A2002008A7006430A80018209E
:1001600078080420F800A3002308C03C031DC02821
:10017000FF30A3002208C03C031DC028FF30A200AE
:1001800041282008783C031DC728013081009228AF
:0201900063000A
:04400E00E22FFF3F5F
:00000001FF
;PIC16F887
;CRC=AACC  CREATED="20-Aug-16 17:22"
