:1000000004308A00552C0000FF00030E8301A1007C
:100010000A08A0008A010408A2007708A300780853
:10002000A4007908A5007A08A60003170D08031399
:10003000A70003170F080313A80003170C080313E6
:10004000A90003170E080313AA00831383128C3030
:100050008400001C2D280C184E2822088400230838
:10006000F7002408F8002508F9002608FA002708F8
:1000700003178D000313280803178F0003132908A3
:1000800003178C0003132A0803178E00031320089C
:100090008A00210E8300FF0E7F0E09008A110A12CA
:1000A00051288E01E7308F0096308E00B10A0C1077
:1000B0008A110A122D28C82A592748104E24412A8D
:1000C000202A55274710201020100000C427CE23D7
:1000D00020244F10542445105424C12720102010F0
:1000E000800C3A003A003A00C42720274410CC265E
:1000F000B31AA018201D00002010000120100001DC
:100100002000200020008316881283128812831694
:100110008601831236088600831688138312881797
:100120002030F700F70B92289528000083168813DB
:10013000831288132030F700F70B9C289F280000BB
:10014000080036308400831300080319B4280630F1
:10015000F800F701F70BAA28F80BA9287B30F70065
:10016000F70BB028800BA72808008316881383128A
:100170008813831688128312881283160813831239
:1001800008133830B60083204230F700F70BC6283A
:1001900000000F30B60083204230F700F70BCE2866
:1001A00000000130B60083200230B600A1200630E6
:1001B000B60083202830B600A1208A110A12702CC4
:1001C00083168812831288168316860183123908D3
:1001D000860083168813831288172030F700F70BE8
:1001E000EF28F2280000831688138312881320302A
:1001F000F700F70BF928FC28000008000B08B600F0
:100200008B13831603178C170C1400000000831245
:100210000313B61B8B1703170C087F3903195229D8
:100220000313B60003170D080313B70003170F08D5
:100230000313B8003608B900E020370803178D0013
:100240000313380803178F0003130B08B9008B132F
:10025000831603178C170C1400000000831203137D
:10026000B91B8B1703170C0D0E0D7F39031952297B
:100270000313B60003170D080313B70003170F0885
:100280000313B8003608B900E020370803178D00C3
:100290000313380803178F008D0A03198F0A0313FD
:1002A000FE280317031308003708F8013602031865
:1002B0005C293608F7006829F7010830B800B60D48
:1002C000F70D370877020318F700F80DB80B5F2910
:1002D0000800F801F901F701FA013908031D732933
:1002E000380803198D291030BA000310B60DB70D68
:1002F000F70DFA0D39087A02031D802938087702B4
:10030000031C89293808F702031CFA033908FA028A
:100310000314F80DF90DBA0B752908008030B600EA
:1003200083205B3003178D0000308F000313FE2005
:10033000C030B6008320663003178D0000308F0078
:100340000313FE209D30B60083202D08B6000A302E
:10035000B700542130307807B600B900E0202D08EE
:10036000B6000A30B700542130307707B600B90024
:10037000E020713003178D0000308F000313FE2042
:100380002E08B6000A30B700542130307807B60086
:10039000B900E0202E08B6000A30B70054213030F2
:1003A0007707B600B900E020723003178D000030E7
:1003B0008F000313FE202F08B6000A30B700542127
:1003C00030307807B600B900E0202F08B6000A30B8
:1003D000B700542130307707B600B900E020733001
:1003E00003178D0000308F000313FE203008B60085
:1003F0000A30B700542130307807B600B900E02049
:100400003008B6000A30B700542130307707B60004
:10041000B900E020D430B6008320743003178D007B
:1004200000308F000313FE20E430B600832035082F
:10043000B7003408B600B9010A30B800692179085C
:10044000B7007808B6003030B6070318B70A360888
:10045000B900E0203508B7003408B600B9010A3009
:10046000B80069217708B6007A08B7003030B607BF
:100470000318B70A3608B900E020DF30B900E020E1
:100480004330B900E02008003A080319092BC600E0
:100490003E080319092BC602031C532A7F30C607E6
:1004A0000318092B592A8130C602031C092B031992
:1004B000092B4608F700F801F901FA01C5013B08CC
:1004C000C400C4173C08C3003D08C2001930C60070
:1004D0004108C20203187C2A0130C30203187C2A97
:1004E000C40203187C2AC50203187C2AC50AC40A60
:1004F000C30A4108C207AE2A4008C3020318972A5C
:100500000130C4020318972AC5020318972AC50AA6
:10051000C40A4008C3074108C207031CAE2AC30A25
:10052000031DAE2AC40A031DAE2AC50AAE2A3F081F
:100530008038C4020318AD2A0130C5020318AD2A61
:10054000C50A3F088038C4074008C307031C8B2A2C
:10055000C40A031D8B2AC50A8B2A7A14C60BB12A3A
:10056000BC2A0310C20DC30DC40DC50D0310FA0D36
:10057000F90DF80DC70D682A471CC42A0310F80CA2
:10058000F90CFA0CC70CC72AF7030319092BC71B70
:10059000F02A0310C20DC30DC40DC50D4108C202DF
:1005A0000318DC2A0130C3020318DC2AC402031832
:1005B000DC2AC502031CFF2A4008C3020318E72AED
:1005C0000130C4020318E72AC502031CFF2A3F08B2
:1005D0008038C4020318F02A0130C502031CFF2A28
:1005E000FA0A031DFF2AF90A031DFF2AF80A031D50
:1005F000FF2AF70A0319092BF80CF90CFA0C3B082F
:10060000C6003F08C606C61F072BF8170D2BF813A8
:100610000D2BF701F801F901FA010800B501B40149
:10062000B3013308633C031C252B9F149F18162B22
:1006300083161E088312B4071E0803181E0FB50781
:100640000130B600A120B30A112B3508B7003408D9
:10065000B6008E30F7003708F8003608F900FA01C6
:10066000F808031D3D2B7908F800F9010830F7025E
:10067000F808031D3D2BF701452B0310F81B442BF5
:10068000F90DF80DF7033D2BF8137A08BD00790832
:10069000BC007808BB007708BA00AA30C100F1306E
:1006A000C0000230BF008030BE0044227A08B9008A
:1006B0007908B8007808B7007708B6003908BD0097
:1006C0003808BC003708BB003608BA00C101C001B9
:1006D0004830BF008530BE0044227A08B90079084E
:1006E000B8007808B7007708B6008E30F7003608F3
:1006F000F7023708F9003808F800F917F708031966
:100700008C2B0310F908031D882BF80803198C2B78
:10071000F90CF80CF70B812BB71F932BF809F9098B
:10072000F80A0319F90A7908B5007808B4008A11A3
:100730000A12A02C320BA62B9D30B60083207C30F1
:1007400003178D0000308F000313FE203208023C97
:10075000031DB42BA030B60083207E3003178D001C
:1007600000308F000313FE203208033C031DC92B09
:10077000A330B6008320803003178D0000308F0037
:100780000313FE20813003178D0000308F00031308
:10079000FE208A110A12A22C83160914831209184A
:1007A000E32B1430B600A120831609148312091814
:1007B000DE2BB20A3208043C0319B2018316091475
:1007C0008312091CDE2B8A110A12A32C83168914AA
:1007D000831289181B2C1430B600A12083168914AB
:1007E00083128918162C3208013A0319FE2B033A9A
:1007F0000319062C013A03190E2C162C2D08173C50
:10080000031D042CAD01052CAD0A162C2E083B3C13
:10081000031D0C2CAE010D2CAE0A162C2F083B3CF0
:10082000031D142CAF01152CAF0A162C8316891446
:100830008312891C162C8A110A12A42C83160915FE
:1008400083120919522C1430B600A1208316091501
:10085000831209194D2C3208013A0319362C033A38
:1008600003193E2C013A0319462C4D2CAD08031DEB
:100870003C2C1730AD003D2CAD034D2CAE08031DB4
:10088000442C3B30AE00452CAE034D2CAF08031D6D
:100890004C2C3B30AF004D2CAF038316091583124F
:1008A000091D4D2C8A110A12A52C03081F3983003B
:1008B000831603170908C039890003131F129F12FA
:1008C0000030031788008312870188018901831390
:1008D0000030831603138800013085008312B52889
:1008E000353090008E01E7308F0096308E001F1358
:1008F0009F1783169F1783121F1483160317090867
:10090000C039890003131F129F120130031788009A
:100910000030F800831203131F08C33978049F00C6
:10092000C0308B0483160C148312AF01AE01AD01ED
:10093000B001B1018E213108033C031CB42C0E2BF5
:100940008E219A2BCC2BE62B1E2C3108013C031C4C
:10095000B32C9F30B6008320823003178D00003007
:100960008F000313FE20CD2C0430B102B00A3008F2
:10097000193C031DCD2CB001AF0A2F083C3C031DD0
:10098000CD2CAF01AE0A2E083C3C031DCD2CAE0190
:0E099000AD0A2D08183C0319AD019B2C630025
:04400E00E22FFF3F5F
:00000001FF
;PIC16F887
;CRC=B1A1  CREATED="06-Thg10-16 19:38"
