:1000000001308A0001290000C4224D10532820101D
:1000100000008316881283128812831686018312C9
:100020002108860083168813831288172030F70072
:10003000F70B18281B2800008316881383128813D7
:100040002030F700F70B2228252800000800213077
:1000500084008313000803193A280630F800F701DA
:10006000F70B3028F80B2F287B30F700F70B3628DA
:10007000800B2D280800831688138312881383169B
:1000800088128312881283160813831208133830DB
:10009000A10009200130A10027200F30A100092074
:1000A0000130A10009200230A10027200630A10064
:1000B00009208A110A121B298316881283128816B6
:1000C0008316860183122408860083168813831200
:1000D00088172030F700F70B6B286E280000831676
:1000E0008813831288132030F700F70B75287828BF
:1000F000000008000B08A1008B13831603178C1750
:100100000C140000000083120313A11B8B170317AC
:100110000C087F390319CE280313A10003170D081B
:100120000313A20003170F080313A3002108A40060
:100130005C20220803178D000313230803178F0088
:1001400003130B08A4008B13831603178C170C14CE
:100150000000000083120313A41B8B1703170C0D60
:100160000E0D7F390319CE280313A10003170D08C4
:100170000313A20003170F080313A3002108A40010
:100180005C20220803178D000313230803178F0038
:100190008D0A03198F0A03137A28031703138A1190
:1001A0000A1225292208F80121020318DA28210859
:1001B000F700E628F7010830A300A10DF70D22088B
:1001C00077020318F700F80DA30BDD280800C030F4
:1001D000A10009202008A1000A30A200D22030305E
:1001E0007807A100A4005C202008A1000A30A2002A
:1001F000D22030307707A100A4005C208A110A12B7
:10020000352903081F398300831603170908C039ED
:10021000890003131F129F120030031788008312F6
:100220008701880189018313003083160313880036
:10023000860083123B288030A10009200430031778
:100240008D0000308F0003137A28073090008E0154
:100250008F018E010F08FA000E08F7000F087A02CE
:10026000031D2A297708A000E7282008143C031D55
:0E0270003D298E018F0101308E002A29630086
:04400E00E22FFF3F5F
:00000001FF
;PIC16F887
;CRC=08AA  CREATED="21-Aug-16 18:05"
