CCS PCM C Compiler, Version 5.015, 5967               06-Sep-16 17:10

               Filename:   E:\Youtube\Pic16F887\LCD\LCD_16x2\TEST_LCD_16X2 MOI.lst

               ROM used:   191 words (2%)
                           Largest free fragment is 2048
               RAM used:   10 (3%) at main() level
                           12 (3%) worst case
               Stack used: 2 locations
               Stack size: 8

*
0000:  MOVLW  00
0001:  MOVWF  0A
0002:  GOTO   08A
0003:  NOP
.................... #INCLUDE <16F887.H> 
.................... //////////// Standard Header file for the PIC16F887 device //////////////// 
.................... /////////////////////////////////////////////////////////////////////////// 
.................... ////        (C) Copyright 1996, 2013 Custom Computer Services          //// 
.................... //// This source code may only be used by licensed users of the CCS C  //// 
.................... //// compiler.  This source code may only be distributed to other      //// 
.................... //// licensed users of the CCS C compiler.  No other use, reproduction //// 
.................... //// or distribution is permitted without written permission.          //// 
.................... //// Derivative programs created using this software in object code    //// 
.................... //// form are not restricted in any way.                               //// 
.................... /////////////////////////////////////////////////////////////////////////// 
.................... #device PIC16F887 
*
0057:  MOVF   25,W
0058:  CLRF   78
0059:  SUBWF  24,W
005A:  BTFSC  03.0
005B:  GOTO   05F
005C:  MOVF   24,W
005D:  MOVWF  77
005E:  GOTO   06B
005F:  CLRF   77
0060:  MOVLW  08
0061:  MOVWF  26
0062:  RLF    24,F
0063:  RLF    77,F
0064:  MOVF   25,W
0065:  SUBWF  77,W
0066:  BTFSC  03.0
0067:  MOVWF  77
0068:  RLF    78,F
0069:  DECFSZ 26,F
006A:  GOTO   062
006B:  RETURN
....................  
.................... #list 
....................  
.................... #FUSES NOWDT, PUT, HS, NOPROTECT, NOLVP 
.................... #USE DELAY(CLOCK=20M) 
*
0022:  MOVLW  24
0023:  MOVWF  04
0024:  BCF    03.7
0025:  MOVF   00,W
0026:  BTFSC  03.2
0027:  GOTO   035
0028:  MOVLW  06
0029:  MOVWF  78
002A:  CLRF   77
002B:  DECFSZ 77,F
002C:  GOTO   02B
002D:  DECFSZ 78,F
002E:  GOTO   02A
002F:  MOVLW  7B
0030:  MOVWF  77
0031:  DECFSZ 77,F
0032:  GOTO   031
0033:  DECFSZ 00,F
0034:  GOTO   028
0035:  RETURN
....................  
.................... #INCLUDE<TV_LCD_16X2.c> 
....................  
.................... #IFNDEF LCD_E 
.................... #DEFINE LCD_E   PIN_B7 
.................... #ENDIF 
....................  
.................... #IFNDEF LCD_RW 
.................... #DEFINE LCD_RW   PIN_B6 
.................... #ENDIF 
....................  
.................... #IFNDEF LCD_RS 
.................... #DEFINE LCD_RS   PIN_B5 
.................... #ENDIF 
....................  
....................  
....................  
....................  
....................  
.................... #IFNDEF OUTPUT_LCD 
.................... #DEFINE OUTPUT_LCD   OUTPUT_D 
.................... #ENDIF 
....................  
.................... #DEFINE FUNCTION_SET    0X38 
.................... #DEFINE DISPLAY_CONTROL 0X0F 
.................... #DEFINE CLEAR_DISPLAY   0X01 
.................... #DEFINE ENTRY_MODE      0X06 
.................... #DEFINE SHIFT_LEFT      0X18 
.................... #DEFINE SHIFT_RIGHT     0X1C 
.................... #DEFINE ADDR_LINE1      0X80 
.................... #DEFINE ADDR_LINE2      0XC0 
....................  
....................  
.................... //XXXXXXXXXXXXXXXXXXXX TRUYEN VI TRI CAN HIEN THI TREN LCD XXXXXXXXXXXXXXXXXXXXXXXXX 
.................... VOID LCD_COMMAND(UNSIGNED CHAR MDK) 
.................... { 
....................    OUTPUT_LOW(LCD_RS);     OUTPUT_LCD(MDK); 
*
0004:  BSF    03.5
0005:  BCF    06.5
0006:  BCF    03.5
0007:  BCF    06.5
0008:  BSF    03.5
0009:  CLRF   08
000A:  BCF    03.5
000B:  MOVF   24,W
000C:  MOVWF  08
....................    OUTPUT_HIGH(LCD_E);     DELAY_US(20); 
000D:  BSF    03.5
000E:  BCF    06.7
000F:  BCF    03.5
0010:  BSF    06.7
0011:  MOVLW  20
0012:  MOVWF  77
0013:  DECFSZ 77,F
0014:  GOTO   013
0015:  GOTO   016
0016:  NOP
....................    OUTPUT_LOW(LCD_E);      DELAY_US(20); 
0017:  BSF    03.5
0018:  BCF    06.7
0019:  BCF    03.5
001A:  BCF    06.7
001B:  MOVLW  20
001C:  MOVWF  77
001D:  DECFSZ 77,F
001E:  GOTO   01D
001F:  GOTO   020
0020:  NOP
0021:  RETURN
.................... } 
....................  
.................... //XXXXXXXXXXXXXXXXXXXXXX TRUYEN DU LIEU CAN HIEN THI RA LCD XXXXXXXXXXXXXXXXXXXXXX 
.................... VOID LCD_DATA(UNSIGNED CHAR MHT) 
.................... { 
....................    OUTPUT_HIGH(LCD_RS);     OUTPUT_LCD(MHT); 
*
006C:  BSF    03.5
006D:  BCF    06.5
006E:  BCF    03.5
006F:  BSF    06.5
0070:  BSF    03.5
0071:  CLRF   08
0072:  BCF    03.5
0073:  MOVF   25,W
0074:  MOVWF  08
....................    OUTPUT_HIGH(LCD_E);     DELAY_US(20); 
0075:  BSF    03.5
0076:  BCF    06.7
0077:  BCF    03.5
0078:  BSF    06.7
0079:  MOVLW  20
007A:  MOVWF  77
007B:  DECFSZ 77,F
007C:  GOTO   07B
007D:  GOTO   07E
007E:  NOP
....................    OUTPUT_LOW(LCD_E);     DELAY_US(20); 
007F:  BSF    03.5
0080:  BCF    06.7
0081:  BCF    03.5
0082:  BCF    06.7
0083:  MOVLW  20
0084:  MOVWF  77
0085:  DECFSZ 77,F
0086:  GOTO   085
0087:  GOTO   088
0088:  NOP
0089:  RETURN
.................... } 
....................  
.................... //XXXXXXXXXXXXXXXXXXXXXXX CAI DAT LCD KHI KHOI TAO XXXXXXXXXXXXXXXXXXXXXXXXXXXXXXX 
.................... VOID LCD_SETUP() 
.................... { 
....................    OUTPUT_LOW(LCD_E);      
*
0036:  BSF    03.5
0037:  BCF    06.7
0038:  BCF    03.5
0039:  BCF    06.7
....................    OUTPUT_LOW(LCD_RS);      
003A:  BSF    03.5
003B:  BCF    06.5
003C:  BCF    03.5
003D:  BCF    06.5
....................    OUTPUT_LOW(LCD_RW); 
003E:  BSF    03.5
003F:  BCF    06.6
0040:  BCF    03.5
0041:  BCF    06.6
....................    LCD_COMMAND(FUNCTION_SET);    DELAY_MS(1); 
0042:  MOVLW  38
0043:  MOVWF  24
0044:  CALL   004
0045:  MOVLW  01
0046:  MOVWF  24
0047:  CALL   022
....................    LCD_COMMAND(DISPLAY_CONTROL); 
0048:  MOVLW  0F
0049:  MOVWF  24
004A:  CALL   004
....................     
....................    LCD_COMMAND(CLEAR_DISPLAY);   DELAY_MS(2); 
004B:  MOVLW  01
004C:  MOVWF  24
004D:  CALL   004
004E:  MOVLW  02
004F:  MOVWF  24
0050:  CALL   022
....................    LCD_COMMAND(ENTRY_MODE); 
0051:  MOVLW  06
0052:  MOVWF  24
0053:  CALL   004
0054:  BCF    0A.3
0055:  BCF    0A.4
0056:  GOTO   0A4 (RETURN)
....................     
.................... } 
....................  
....................  
....................  
.................... UNSIGNED INT8 I, GIAY,PHUT,GIO; 
....................  
.................... VOID MAIN() 
*
008A:  MOVF   03,W
008B:  ANDLW  1F
008C:  MOVWF  03
008D:  BSF    03.5
008E:  BSF    03.6
008F:  MOVF   09,W
0090:  ANDLW  C0
0091:  MOVWF  09
0092:  BCF    03.6
0093:  BCF    1F.4
0094:  BCF    1F.5
0095:  MOVLW  00
0096:  BSF    03.6
0097:  MOVWF  08
0098:  BCF    03.5
0099:  CLRF   07
009A:  CLRF   08
009B:  CLRF   09
009C:  BCF    03.7
.................... { 
....................    SET_TRIS_D(0X00); 
009D:  MOVLW  00
009E:  BSF    03.5
009F:  BCF    03.6
00A0:  MOVWF  08
....................    SET_TRIS_B(0X00); 
00A1:  MOVWF  06
....................  
....................    LCD_SETUP(); 
00A2:  BCF    03.5
00A3:  GOTO   036
....................     
....................     WHILE(TRUE) 
....................    { 
....................       i=30; 
00A4:  MOVLW  1E
00A5:  MOVWF  20
....................       LCD_COMMAND(0XC0);  
00A6:  MOVLW  C0
00A7:  MOVWF  24
00A8:  CALL   004
....................       LCD_DATA((i/10) + 0X30); 
00A9:  MOVF   20,W
00AA:  MOVWF  24
00AB:  MOVLW  0A
00AC:  MOVWF  25
00AD:  CALL   057
00AE:  MOVLW  30
00AF:  ADDWF  78,W
00B0:  MOVWF  24
00B1:  MOVWF  25
00B2:  CALL   06C
....................       LCD_DATA((i%10) + 0X30); 
00B3:  MOVF   20,W
00B4:  MOVWF  24
00B5:  MOVLW  0A
00B6:  MOVWF  25
00B7:  CALL   057
00B8:  MOVLW  30
00B9:  ADDWF  77,W
00BA:  MOVWF  24
00BB:  MOVWF  25
00BC:  CALL   06C
00BD:  GOTO   0A4
....................        
....................    } 
.................... } 
00BE:  SLEEP

Configuration Fuses:
   Word  1: 2FE2   HS NOWDT PUT MCLR NOPROTECT NOCPD BROWNOUT IESO FCMEN NOLVP NODEBUG
   Word  2: 3FFF   BORV40 NOWRT
