CCS PCM C Compiler, Version 5.015, 5967               06-Sep-16 18:06

               Filename:   E:\Youtube\Pic16F887\LCD\LCD_16x2\TEST_LCD_16X2.lst

               ROM used:   438 words (5%)
                           Largest free fragment is 2048
               RAM used:   10 (3%) at main() level
                           13 (4%) worst case
               Stack used: 3 locations
               Stack size: 8

*
0000:  MOVLW  01
0001:  MOVWF  0A
0002:  GOTO   172
0003:  NOP
.................... #INCLUDE <16F887.H> 
.................... //////////// Standard Header file for the PIC16F887 device //////////////// 
.................... /////////////////////////////////////////////////////////////////////////// 
.................... ////        (C) Copyright 1996, 2013 Custom Computer Services          //// 
.................... //// This source code may only be used by licensed users of the CCS C  //// 
.................... //// compiler.  This source code may only be distributed to other      //// 
.................... //// licensed users of the CCS C compiler.  No other use, reproduction //// 
.................... //// or distribution is permitted without written permission.          //// 
.................... //// Derivative programs created using this software in object code    //// 
.................... //// form are not restricted in any way.                               //// 
.................... /////////////////////////////////////////////////////////////////////////// 
.................... #device PIC16F887 
0004:  BCF    0A.0
0005:  BCF    0A.1
0006:  BCF    0A.2
0007:  ADDWF  02,F
0008:  RETLW  48
0009:  RETLW  55
000A:  RETLW  59
000B:  RETLW  4E
000C:  RETLW  48
000D:  RETLW  20
000E:  RETLW  4E
000F:  RETLW  48
0010:  RETLW  41
0011:  RETLW  54
0012:  RETLW  20
0013:  RETLW  54
0014:  RETLW  55
0015:  RETLW  4E
0016:  RETLW  47
0017:  RETLW  20
0018:  BCF    0A.0
0019:  BCF    0A.1
001A:  BCF    0A.2
001B:  ADDWF  02,F
001C:  RETLW  44
001D:  RETLW  4F
001E:  RETLW  4E
001F:  RETLW  47
0020:  RETLW  5F
0021:  RETLW  48
0022:  RETLW  4F
0023:  RETLW  3A
0024:  RETLW  20
0025:  RETLW  20
0026:  RETLW  20
0027:  RETLW  20
0028:  RETLW  20
0029:  RETLW  20
002A:  RETLW  20
002B:  RETLW  20
002C:  DATA 3A,00
002D:  DATA 3A,00
*
009F:  MOVF   25,W
00A0:  CLRF   78
00A1:  SUBWF  24,W
00A2:  BTFSC  03.0
00A3:  GOTO   0A7
00A4:  MOVF   24,W
00A5:  MOVWF  77
00A6:  GOTO   0B3
00A7:  CLRF   77
00A8:  MOVLW  08
00A9:  MOVWF  26
00AA:  RLF    24,F
00AB:  RLF    77,F
00AC:  MOVF   25,W
00AD:  SUBWF  77,W
00AE:  BTFSC  03.0
00AF:  MOVWF  77
00B0:  RLF    78,F
00B1:  DECFSZ 26,F
00B2:  GOTO   0AA
00B3:  RETURN
00B4:  MOVF   0B,W
00B5:  MOVWF  24
00B6:  BCF    0B.7
00B7:  BSF    03.5
00B8:  BSF    03.6
00B9:  BSF    0C.7
00BA:  BSF    0C.0
00BB:  NOP
00BC:  NOP
00BD:  BCF    03.5
00BE:  BCF    03.6
00BF:  BTFSC  24.7
00C0:  BSF    0B.7
00C1:  BSF    03.6
00C2:  MOVF   0C,W
00C3:  ANDLW  7F
00C4:  BTFSC  03.2
00C5:  GOTO   108
00C6:  BCF    03.6
00C7:  MOVWF  24
00C8:  BSF    03.6
00C9:  MOVF   0D,W
00CA:  BCF    03.6
00CB:  MOVWF  25
00CC:  BSF    03.6
00CD:  MOVF   0F,W
00CE:  BCF    03.6
00CF:  MOVWF  26
00D0:  MOVF   24,W
00D1:  MOVWF  27
00D2:  CALL   081
00D3:  MOVF   25,W
00D4:  BSF    03.6
00D5:  MOVWF  0D
00D6:  BCF    03.6
00D7:  MOVF   26,W
00D8:  BSF    03.6
00D9:  MOVWF  0F
00DA:  BCF    03.6
00DB:  MOVF   0B,W
00DC:  MOVWF  27
00DD:  BCF    0B.7
00DE:  BSF    03.5
00DF:  BSF    03.6
00E0:  BSF    0C.7
00E1:  BSF    0C.0
00E2:  NOP
00E3:  NOP
00E4:  BCF    03.5
00E5:  BCF    03.6
00E6:  BTFSC  27.7
00E7:  BSF    0B.7
00E8:  BSF    03.6
00E9:  RLF    0C,W
00EA:  RLF    0E,W
00EB:  ANDLW  7F
00EC:  BTFSC  03.2
00ED:  GOTO   108
00EE:  BCF    03.6
00EF:  MOVWF  24
00F0:  BSF    03.6
00F1:  MOVF   0D,W
00F2:  BCF    03.6
00F3:  MOVWF  25
00F4:  BSF    03.6
00F5:  MOVF   0F,W
00F6:  BCF    03.6
00F7:  MOVWF  26
00F8:  MOVF   24,W
00F9:  MOVWF  27
00FA:  CALL   081
00FB:  MOVF   25,W
00FC:  BSF    03.6
00FD:  MOVWF  0D
00FE:  BCF    03.6
00FF:  MOVF   26,W
0100:  BSF    03.6
0101:  MOVWF  0F
0102:  INCF   0D,F
0103:  BTFSC  03.2
0104:  INCF   0F,F
0105:  BCF    03.6
0106:  GOTO   0B4
0107:  BSF    03.6
0108:  BCF    03.6
0109:  RETURN
....................  
.................... #list 
....................  
.................... #FUSES NOWDT, PUT, HS, NOPROTECT, NOLVP 
.................... #USE DELAY(CLOCK=20M) 
*
004C:  MOVLW  24
004D:  MOVWF  04
004E:  BCF    03.7
004F:  MOVF   00,W
0050:  BTFSC  03.2
0051:  GOTO   05F
0052:  MOVLW  06
0053:  MOVWF  78
0054:  CLRF   77
0055:  DECFSZ 77,F
0056:  GOTO   055
0057:  DECFSZ 78,F
0058:  GOTO   054
0059:  MOVLW  7B
005A:  MOVWF  77
005B:  DECFSZ 77,F
005C:  GOTO   05B
005D:  DECFSZ 00,F
005E:  GOTO   052
005F:  RETURN
....................  
.................... #INCLUDE <TV_LCD_16X2.C> 
.................... #IFNDEF LCD_RS 
.................... #DEFINE LCD_RS   PIN_B2 
.................... #ENDIF 
....................  
.................... #IFNDEF LCD_RW 
.................... #DEFINE LCD_RW   PIN_B1 
.................... #ENDIF 
....................  
.................... #IFNDEF LCD_E 
.................... #DEFINE LCD_E   PIN_B0 
.................... #ENDIF 
....................  
.................... #IFNDEF OUTPUT_LCD 
.................... #DEFINE OUTPUT_LCD   OUTPUT_D 
.................... #ENDIF 
....................  
.................... #DEFINE FUNCTION_SET    0X38 
.................... #DEFINE DISPLAY_CONTROL 0X0F 
.................... #DEFINE CLEAR_DISPLAY   0X01 
.................... #DEFINE ENTRY_MODE      0X06 
.................... #DEFINE SHIFT_LEFT      0X18 
.................... #DEFINE SHIFT_RIGHT     0X1C 
.................... #DEFINE ADDR_LINE1      0X80 
.................... #DEFINE ADDR_LINE2      0XC0 
....................  
....................  
.................... //XXXXXXXXXXXXXXXXXXXX TRUYEN VI TRI CAN HIEN THI TREN LCD XXXXXXXXXXXXXXXXXXXXXXXXX 
.................... VOID LCD_COMMAND(UNSIGNED CHAR MDK) 
.................... { 
....................    OUTPUT_LOW(LCD_RS);     OUTPUT_LCD(MDK); 
*
002E:  BSF    03.5
002F:  BCF    06.2
0030:  BCF    03.5
0031:  BCF    06.2
0032:  BSF    03.5
0033:  CLRF   08
0034:  BCF    03.5
0035:  MOVF   24,W
0036:  MOVWF  08
....................    OUTPUT_HIGH(LCD_E);     DELAY_US(20); 
0037:  BSF    03.5
0038:  BCF    06.0
0039:  BCF    03.5
003A:  BSF    06.0
003B:  MOVLW  20
003C:  MOVWF  77
003D:  DECFSZ 77,F
003E:  GOTO   03D
003F:  GOTO   040
0040:  NOP
....................    OUTPUT_LOW(LCD_E);      DELAY_US(20); 
0041:  BSF    03.5
0042:  BCF    06.0
0043:  BCF    03.5
0044:  BCF    06.0
0045:  MOVLW  20
0046:  MOVWF  77
0047:  DECFSZ 77,F
0048:  GOTO   047
0049:  GOTO   04A
004A:  NOP
004B:  RETURN
.................... } 
....................  
.................... //XXXXXXXXXXXXXXXXXXXXXX TRUYEN DU LIEU CAN HIEN THI RA LCD XXXXXXXXXXXXXXXXXXXXXX 
.................... VOID LCD_DATA(UNSIGNED CHAR MHT) 
.................... { 
....................    OUTPUT_HIGH(LCD_RS);     OUTPUT_LCD(MHT); 
*
0081:  BSF    03.5
0082:  BCF    06.2
0083:  BCF    03.5
0084:  BSF    06.2
0085:  BSF    03.5
0086:  CLRF   08
0087:  BCF    03.5
0088:  MOVF   27,W
0089:  MOVWF  08
....................    OUTPUT_HIGH(LCD_E);     DELAY_US(20); 
008A:  BSF    03.5
008B:  BCF    06.0
008C:  BCF    03.5
008D:  BSF    06.0
008E:  MOVLW  20
008F:  MOVWF  77
0090:  DECFSZ 77,F
0091:  GOTO   090
0092:  GOTO   093
0093:  NOP
....................    OUTPUT_LOW(LCD_E);     DELAY_US(20); 
0094:  BSF    03.5
0095:  BCF    06.0
0096:  BCF    03.5
0097:  BCF    06.0
0098:  MOVLW  20
0099:  MOVWF  77
009A:  DECFSZ 77,F
009B:  GOTO   09A
009C:  GOTO   09D
009D:  NOP
009E:  RETURN
.................... } 
....................  
.................... //XXXXXXXXXXXXXXXXXXXXXXX CAI DAT LCD KHI KHOI TAO XXXXXXXXXXXXXXXXXXXXXXXXXXXXXXX 
.................... VOID LCD_SETUP() 
.................... { 
....................    OUTPUT_LOW(LCD_E);      
*
0060:  BSF    03.5
0061:  BCF    06.0
0062:  BCF    03.5
0063:  BCF    06.0
....................    OUTPUT_LOW(LCD_RS);      
0064:  BSF    03.5
0065:  BCF    06.2
0066:  BCF    03.5
0067:  BCF    06.2
....................    OUTPUT_LOW(LCD_RW); 
0068:  BSF    03.5
0069:  BCF    06.1
006A:  BCF    03.5
006B:  BCF    06.1
....................    LCD_COMMAND(FUNCTION_SET);    DELAY_MS(1); 
006C:  MOVLW  38
006D:  MOVWF  24
006E:  CALL   02E
006F:  MOVLW  01
0070:  MOVWF  24
0071:  CALL   04C
....................    LCD_COMMAND(DISPLAY_CONTROL); 
0072:  MOVLW  0F
0073:  MOVWF  24
0074:  CALL   02E
....................     
....................    LCD_COMMAND(CLEAR_DISPLAY);   DELAY_MS(2); 
0075:  MOVLW  01
0076:  MOVWF  24
0077:  CALL   02E
0078:  MOVLW  02
0079:  MOVWF  24
007A:  CALL   04C
....................    LCD_COMMAND(ENTRY_MODE); 
007B:  MOVLW  06
007C:  MOVWF  24
007D:  CALL   02E
007E:  BCF    0A.3
007F:  BCF    0A.4
0080:  GOTO   18B (RETURN)
....................     
.................... } 
....................  
....................  
.................... UNSIGNED INT8 I, GIAY,PHUT,GIO; 
.................... CONST UNSIGNED CHAR HANG1[16]={"HUYNH NHAT TUNG "}; 
.................... CONST UNSIGNED CHAR HANG2[16]={"DONG_HO:        "}; 
....................  
.................... VOID LCD_HIENTHI() 
.................... { 
....................    LCD_COMMAND(0XC8);  
*
0119:  MOVLW  C8
011A:  MOVWF  24
011B:  CALL   02E
....................    LCD_DATA((GIO/10) + 0X30); 
011C:  MOVF   23,W
011D:  MOVWF  24
011E:  MOVLW  0A
011F:  MOVWF  25
0120:  CALL   09F
0121:  MOVLW  30
0122:  ADDWF  78,W
0123:  MOVWF  24
0124:  MOVWF  27
0125:  CALL   081
....................    LCD_DATA((GIO%10) + 0X30); 
0126:  MOVF   23,W
0127:  MOVWF  24
0128:  MOVLW  0A
0129:  MOVWF  25
012A:  CALL   09F
012B:  MOVLW  30
012C:  ADDWF  77,W
012D:  MOVWF  24
012E:  MOVWF  27
012F:  CALL   081
....................    LCD_DATA(":"); 
0130:  MOVLW  2C
0131:  BSF    03.6
0132:  MOVWF  0D
0133:  MOVLW  00
0134:  MOVWF  0F
0135:  BCF    03.6
0136:  CALL   0B4
....................    LCD_DATA((PHUT/10) + 0X30); 
0137:  MOVF   22,W
0138:  MOVWF  24
0139:  MOVLW  0A
013A:  MOVWF  25
013B:  CALL   09F
013C:  MOVLW  30
013D:  ADDWF  78,W
013E:  MOVWF  24
013F:  MOVWF  27
0140:  CALL   081
....................    LCD_DATA((PHUT%10) + 0X30); 
0141:  MOVF   22,W
0142:  MOVWF  24
0143:  MOVLW  0A
0144:  MOVWF  25
0145:  CALL   09F
0146:  MOVLW  30
0147:  ADDWF  77,W
0148:  MOVWF  24
0149:  MOVWF  27
014A:  CALL   081
....................    LCD_DATA(":"); 
014B:  MOVLW  2D
014C:  BSF    03.6
014D:  MOVWF  0D
014E:  MOVLW  00
014F:  MOVWF  0F
0150:  BCF    03.6
0151:  CALL   0B4
....................    LCD_DATA((GIAY/10) + 0X30); 
0152:  MOVF   21,W
0153:  MOVWF  24
0154:  MOVLW  0A
0155:  MOVWF  25
0156:  CALL   09F
0157:  MOVLW  30
0158:  ADDWF  78,W
0159:  MOVWF  24
015A:  MOVWF  27
015B:  CALL   081
....................    LCD_DATA((GIAY%10) + 0X30); 
015C:  MOVF   21,W
015D:  MOVWF  24
015E:  MOVLW  0A
015F:  MOVWF  25
0160:  CALL   09F
0161:  MOVLW  30
0162:  ADDWF  77,W
0163:  MOVWF  24
0164:  MOVWF  27
0165:  CALL   081
.................... } 
....................  
.................... VOID HIENTHI_THOI_GIAN() 
.................... { 
....................  
....................    FOR(GIO=0;GIO<24;GIO++) 
*
010A:  CLRF   23
010B:  MOVF   23,W
010C:  SUBLW  17
010D:  BTFSS  03.0
010E:  GOTO   16F
....................       { 
....................          FOR(PHUT=0;PHUT<60;PHUT++) 
010F:  CLRF   22
0110:  MOVF   22,W
0111:  SUBLW  3B
0112:  BTFSS  03.0
0113:  GOTO   16D
....................          { 
....................             FOR(GIAY=0;GIAY<60;GIAY++) 
0114:  CLRF   21
0115:  MOVF   21,W
0116:  SUBLW  3B
0117:  BTFSS  03.0
0118:  GOTO   16B
....................             { 
....................                 LCD_HIENTHI(); 
....................                 DELAY_MS(200); 
*
0166:  MOVLW  C8
0167:  MOVWF  24
0168:  CALL   04C
0169:  INCF   21,F
016A:  GOTO   115
....................             } 
016B:  INCF   22,F
016C:  GOTO   110
....................          } 
016D:  INCF   23,F
016E:  GOTO   10B
....................       }       
016F:  BCF    0A.3
0170:  BCF    0A.4
0171:  GOTO   1B4 (RETURN)
.................... } 
....................  
....................  
.................... VOID MAIN() 
0172:  MOVF   03,W
0173:  ANDLW  1F
0174:  MOVWF  03
0175:  BSF    03.5
0176:  BSF    03.6
0177:  MOVF   09,W
0178:  ANDLW  C0
0179:  MOVWF  09
017A:  BCF    03.6
017B:  BCF    1F.4
017C:  BCF    1F.5
017D:  MOVLW  00
017E:  BSF    03.6
017F:  MOVWF  08
0180:  BCF    03.5
0181:  CLRF   07
0182:  CLRF   08
0183:  CLRF   09
0184:  BCF    03.7
.................... { 
....................    SET_TRIS_D(0X00); 
0185:  MOVLW  00
0186:  BSF    03.5
0187:  BCF    03.6
0188:  MOVWF  08
....................     
....................    //SET_TRIS_B(0X00); 
....................     
....................     
....................    LCD_SETUP(); 
0189:  BCF    03.5
018A:  GOTO   060
....................    LCD_COMMAND(ADDR_LINE1);      DELAY_US(10); 
018B:  MOVLW  80
018C:  MOVWF  24
018D:  CALL   02E
018E:  MOVLW  10
018F:  MOVWF  77
0190:  DECFSZ 77,F
0191:  GOTO   190
0192:  NOP
....................    FOR(I=0;I<16;I++) 
0193:  CLRF   20
0194:  MOVF   20,W
0195:  SUBLW  0F
0196:  BTFSS  03.0
0197:  GOTO   19F
....................    { 
....................       LCD_DATA(HANG1[I]); 
0198:  MOVF   20,W
0199:  CALL   004
019A:  MOVWF  24
019B:  MOVWF  27
019C:  CALL   081
019D:  INCF   20,F
019E:  GOTO   194
....................    } 
....................     
....................    LCD_COMMAND(ADDR_LINE2);      DELAY_US(10); 
019F:  MOVLW  C0
01A0:  MOVWF  24
01A1:  CALL   02E
01A2:  MOVLW  10
01A3:  MOVWF  77
01A4:  DECFSZ 77,F
01A5:  GOTO   1A4
01A6:  NOP
....................    FOR(I=0;I<16;I++) 
01A7:  CLRF   20
01A8:  MOVF   20,W
01A9:  SUBLW  0F
01AA:  BTFSS  03.0
01AB:  GOTO   1B3
....................    { 
....................       LCD_DATA(HANG2[I]); 
01AC:  MOVF   20,W
01AD:  CALL   018
01AE:  MOVWF  24
01AF:  MOVWF  27
01B0:  CALL   081
01B1:  INCF   20,F
01B2:  GOTO   1A8
....................    } 
....................     
....................     
....................    WHILE(TRUE) 
....................    { 
....................       HIENTHI_THOI_GIAN(); 
01B3:  GOTO   10A
01B4:  GOTO   1B3
....................        
....................    } 
.................... } 
01B5:  SLEEP

Configuration Fuses:
   Word  1: 2FE2   HS NOWDT PUT MCLR NOPROTECT NOCPD BROWNOUT IESO FCMEN NOLVP NODEBUG
   Word  2: 3FFF   BORV40 NOWRT
