:1000000001308A00722900000A108A100A11820742
:100010004834553459344E34483420344E344834FE
:10002000413454342034543455344E34473420341D
:100030000A108A100A11820744344F344E34473470
:100040005F3448344F343A34203420342034203460
:1000500020342034203420343A003A00831606112C
:1000600083120611831688018312240888008316E0
:100070000610831206142030F700F70B3D284028A5
:10008000000083160610831206102030F700F70BCD
:1000900047284A2800000800243084008313000801
:1000A00003195F280630F800F701F70B5528F80B05
:1000B00054287B30F700F70B5B28800B5228080090
:1000C000831606108312061083160611831206117A
:1000D00083168610831286103830A4002E2001303B
:1000E000A4004C200F30A4002E200130A4002E20AC
:1000F0000230A4004C200630A4002E208A110A12DF
:100100008B29831606118312061583168801831224
:100110002708880083160610831206142030F70083
:10012000F70B902893280000831606108312061000
:100130002030F700F70B9A289D28000008002508BA
:10014000F80124020318A7282408F700B328F701B0
:100150000830A600A40DF70D250877020318F70054
:10016000F80DA60BAA2808000B08A4008B13831611
:1001700003178C170C140000000083120313A41B38
:100180008B1703170C087F39031908290313A400E0
:1001900003170D080313A50003170F080313A60088
:1001A0002408A7008120250803178D0003132608C3
:1001B00003178F0003130B08A7008B138316031775
:1001C0008C170C140000000083120313A71B8B175D
:1001D00003170C0D0E0D7F39031908290313A40012
:1001E00003170D080313A50003170F080313A60038
:1001F0002408A7008120250803178D000313260873
:1002000003178F008D0A03198F0A0313B4280317ED
:1002100003130800A3012308173C031C6F29A20144
:1002200022083B3C031C6D29A10121083B3C031C17
:100230006B29C830A4002E202308A4000A30A50092
:100240009F2030307807A400A70081202308A40055
:100250000A30A5009F2030307707A400A700812036
:100260002C3003178D0000308F000313B4202208B8
:10027000A4000A30A5009F2030307807A400A70012
:1002800081202208A4000A30A5009F203030770783
:10029000A400A70081202D3003178D0000308F00AF
:1002A0000313B4202108A4000A30A5009F20303099
:1002B0007807A400A70081202108A4000A30A50027
:1002C0009F2030307707A400A7008120C830A40009
:1002D0004C20A10A1529A20A1029A30A0B298A1168
:1002E0000A12B42903081F3983008316031709086B
:1002F000C039890003131F129F12003003178800B2
:100300008312870188018901831300308316031348
:100310008800831260288030A4002E201030F7005F
:10032000F70B90290000A00120080F3C031C9F2917
:1003300020080420A400A7008120A00A9429C0302E
:10034000A4002E201030F700F70BA4290000A00114
:1003500020080F3C031CB32920081820A400A70084
:0C0360008120A00AA8290A29B329630003
:04400E00E22FFF3F5F
:00000001FF
;PIC16F887
;CRC=F535  CREATED="06-Sep-16 18:06"
