:1000000000308A00DD2800000A108A100A118207D9
:10001000C034F934A434B034993492348234F8348E
:100020008034903488348334C634A13486348E349A
:10003000F801F901F701FA012808031D2228270811
:1000400003193C281030A9000310A50DA60DF70DCB
:10005000FA0D28087A02031D2F2827087702031CAF
:1000600038282708F702031CFA032808FA020314A9
:10007000F80DF90DA90B24280800253084008313FE
:100080000008031950280630F800F701F70B46283E
:10009000F80B45287B30F700F70B4C28800B4328E2
:1000A0000800A0012008633C031CDA282208A600EF
:1000B0002108A500A8010A30A70018207908A60089
:1000C0007808A5007908FA0078080420A7008316AC
:1000D00086018312270886008316081083120810F1
:1000E0000130A5003D208316081083120814220851
:1000F000A6002108A500A8010A30A700182077084B
:10010000A5007A08A600FA0077080420A700831645
:1001100086018312270886008316881083128810B0
:100120000130A5003D20831688108312881424080E
:10013000A6002308A500A8010A30A7001820790806
:10014000A6007808A5007908FA0078080420A7001E
:1001500083168601831227088600831608138312EC
:1001600008130130A5003D208316081383120817D9
:100170002408A6002308A500A8010A30A70018201B
:100180007708A5007A08A600FA0077080420A700DF
:10019000831686018312270886008316881383122C
:1001A00088130130A5003D20831688138312881719
:1001B000A00A52288A110A121A2903081F3983003B
:1001C000831603170908C039890003131F129F12F1
:1001D0000030031788008312870188018901831387
:1001E000003083160313860088008801FF308312D5
:1001F0008800A201A101A4011E30A300A208031DD2
:1002000009292108313C031C0929A10A0319A20A62
:100210000B29A201A101A308031D1129A408031998
:10022000162923080319A403A3031929A4011E30C6
:08023000A3005128FE28630021
:04400E00E22FFF3F5F
:00000001FF
;PIC16F887
;CRC=11F3  CREATED="14-Thg3-17 23:14"
