CCS PCM C Compiler, Version 5.015, 5967               02-Thg11-16 00:51

               Filename:   E:\Youtube\Pic16F887\8LED_7DOAN_QUET\test_dich\test_dich.lst

               ROM used:   522 words (6%)
                           Largest free fragment is 2048
               RAM used:   41 (11%) at main() level
                           44 (12%) worst case
               Stack used: 3 locations
               Stack size: 8

*
0000:  MOVLW  01
0001:  MOVWF  0A
0002:  GOTO   1AE
0003:  NOP
.................... #INCLUDE <16F887.H> 
.................... //////////// Standard Header file for the PIC16F887 device //////////////// 
.................... /////////////////////////////////////////////////////////////////////////// 
.................... ////        (C) Copyright 1996, 2013 Custom Computer Services          //// 
.................... //// This source code may only be used by licensed users of the CCS C  //// 
.................... //// compiler.  This source code may only be distributed to other      //// 
.................... //// licensed users of the CCS C compiler.  No other use, reproduction //// 
.................... //// or distribution is permitted without written permission.          //// 
.................... //// Derivative programs created using this software in object code    //// 
.................... //// form are not restricted in any way.                               //// 
.................... /////////////////////////////////////////////////////////////////////////// 
.................... #device PIC16F887 
0004:  BCF    0A.0
0005:  BCF    0A.1
0006:  BCF    0A.2
0007:  ADDWF  02,F
0008:  RETLW  C0
0009:  RETLW  F9
000A:  RETLW  A4
000B:  RETLW  B0
000C:  RETLW  99
000D:  RETLW  92
000E:  RETLW  82
000F:  RETLW  F8
0010:  RETLW  80
0011:  RETLW  90
0012:  RETLW  88
0013:  RETLW  83
0014:  RETLW  C6
0015:  RETLW  A1
0016:  RETLW  86
0017:  RETLW  8E
*
014D:  MOVF   43,W
014E:  XORWF  44,W
014F:  ANDLW  80
0150:  MOVWF  46
0151:  BTFSS  43.7
0152:  GOTO   155
0153:  COMF   43,F
0154:  INCF   43,F
0155:  BTFSS  44.7
0156:  GOTO   159
0157:  COMF   44,F
0158:  INCF   44,F
0159:  MOVF   44,W
015A:  CLRF   78
015B:  SUBWF  43,W
015C:  BTFSC  03.0
015D:  GOTO   161
015E:  MOVF   43,W
015F:  MOVWF  77
0160:  GOTO   16D
0161:  CLRF   77
0162:  MOVLW  08
0163:  MOVWF  45
0164:  RLF    43,F
0165:  RLF    77,F
0166:  MOVF   44,W
0167:  SUBWF  77,W
0168:  BTFSC  03.0
0169:  MOVWF  77
016A:  RLF    78,F
016B:  DECFSZ 45,F
016C:  GOTO   164
016D:  BTFSS  46.7
016E:  GOTO   171
016F:  COMF   78,F
0170:  INCF   78,F
0171:  RETURN
....................  
.................... #list 
....................  
.................... #FUSES NOWDT, PUT, HS, NOPROTECT, NOLVP 
.................... #USE DELAY(CLOCK=20M) 
*
0018:  MOVLW  44
0019:  MOVWF  04
001A:  BCF    03.7
001B:  MOVF   00,W
001C:  BTFSC  03.2
001D:  GOTO   02B
001E:  MOVLW  06
001F:  MOVWF  78
0020:  CLRF   77
0021:  DECFSZ 77,F
0022:  GOTO   021
0023:  DECFSZ 78,F
0024:  GOTO   020
0025:  MOVLW  7B
0026:  MOVWF  77
0027:  DECFSZ 77,F
0028:  GOTO   027
0029:  DECFSZ 00,F
002A:  GOTO   01E
002B:  RETURN
....................  
.................... CONST UNSIGNED CHAR MA7DOAN[16]= {0XC0,0XF9,0xA4,0XB0,0X99,0X92,0X82,0XF8, 
.................... 0X80,0X90,0x88, 0x83, 0xC6, 0xA1, 0x86, 0x8E}; 
.................... unsigned int8 hello[8]={0x89,0x86,0xc7,0xc7,0xc0,0XFF,0XFF,0XFF}; 
*
01C1:  MOVLW  89
01C2:  BCF    03.6
01C3:  MOVWF  20
01C4:  MOVLW  86
01C5:  MOVWF  21
01C6:  MOVLW  C7
01C7:  MOVWF  22
01C8:  MOVWF  23
01C9:  MOVLW  C0
01CA:  MOVWF  24
01CB:  MOVLW  FF
01CC:  MOVWF  25
01CD:  MOVWF  26
01CE:  MOVWF  27
.................... UNSIGNED CHAR LED7[16] = {0XFF,0XFF,0XFF,0XFF,0XFF,0XFF,0XFF,0XFF,0XFF,0XFF,0XFF,0XFF,0XFF}; 
01CF:  MOVWF  28
01D0:  MOVWF  29
01D1:  MOVWF  2A
01D2:  MOVWF  2B
01D3:  MOVWF  2C
01D4:  MOVWF  2D
01D5:  MOVWF  2E
01D6:  MOVWF  2F
01D7:  MOVWF  30
01D8:  MOVWF  31
01D9:  MOVWF  32
01DA:  MOVWF  33
01DB:  MOVWF  34
01DC:  CLRF   35
01DD:  CLRF   36
01DE:  CLRF   37
.................... SIGNED INT8 I,K,L,B1,B2,B3,B4,B5,B6,B7,B0; 
....................  
.................... VOID GIAI_MA() 
.................... { 
....................     B0 = LED7[0]; 
*
00DE:  MOVF   28,W
00DF:  MOVWF  42
....................     B1 = LED7[1]; 
00E0:  MOVF   29,W
00E1:  MOVWF  3B
....................     B2 = LED7[2]; 
00E2:  MOVF   2A,W
00E3:  MOVWF  3C
....................     B3 = LED7[3]; 
00E4:  MOVF   2B,W
00E5:  MOVWF  3D
....................     B4 = LED7[4]; 
00E6:  MOVF   2C,W
00E7:  MOVWF  3E
....................     B5 = LED7[5]; 
00E8:  MOVF   2D,W
00E9:  MOVWF  3F
....................     B6 = LED7[6]; 
00EA:  MOVF   2E,W
00EB:  MOVWF  40
....................     B7 = LED7[7]; 
00EC:  MOVF   2F,W
00ED:  MOVWF  41
00EE:  BCF    0A.3
00EF:  BCF    0A.4
00F0:  GOTO   1EA (RETURN)
.................... } 
.................... VOID HIENTHI() 
.................... { 
....................    FOR(L=0;L<10;L++) 
*
002C:  CLRF   3A
002D:  BTFSC  3A.7
002E:  GOTO   033
002F:  MOVF   3A,W
0030:  SUBLW  09
0031:  BTFSS  03.0
0032:  GOTO   0B5
....................             { 
....................                 
....................                    OUTPUT_B(B7);   OUTPUT_LOW(PIN_D0);     DELAY_MS(1);      OUTPUT_HIGH(PIN_D0); 
0033:  BSF    03.5
0034:  CLRF   06
0035:  BCF    03.5
0036:  MOVF   41,W
0037:  MOVWF  06
0038:  BSF    03.5
0039:  BCF    08.0
003A:  BCF    03.5
003B:  BCF    08.0
003C:  MOVLW  01
003D:  MOVWF  44
003E:  CALL   018
003F:  BSF    03.5
0040:  BCF    08.0
0041:  BCF    03.5
0042:  BSF    08.0
....................                    OUTPUT_B(B6);   OUTPUT_LOW(PIN_D1);     DELAY_MS(1);      OUTPUT_HIGH(PIN_D1); 
0043:  BSF    03.5
0044:  CLRF   06
0045:  BCF    03.5
0046:  MOVF   40,W
0047:  MOVWF  06
0048:  BSF    03.5
0049:  BCF    08.1
004A:  BCF    03.5
004B:  BCF    08.1
004C:  MOVLW  01
004D:  MOVWF  44
004E:  CALL   018
004F:  BSF    03.5
0050:  BCF    08.1
0051:  BCF    03.5
0052:  BSF    08.1
....................                    OUTPUT_B(B5);   OUTPUT_LOW(PIN_D2);     DELAY_MS(1);      OUTPUT_HIGH(PIN_D2); 
0053:  BSF    03.5
0054:  CLRF   06
0055:  BCF    03.5
0056:  MOVF   3F,W
0057:  MOVWF  06
0058:  BSF    03.5
0059:  BCF    08.2
005A:  BCF    03.5
005B:  BCF    08.2
005C:  MOVLW  01
005D:  MOVWF  44
005E:  CALL   018
005F:  BSF    03.5
0060:  BCF    08.2
0061:  BCF    03.5
0062:  BSF    08.2
....................                    OUTPUT_B(B4);   OUTPUT_LOW(PIN_D3);     DELAY_MS(1);      OUTPUT_HIGH(PIN_D3); 
0063:  BSF    03.5
0064:  CLRF   06
0065:  BCF    03.5
0066:  MOVF   3E,W
0067:  MOVWF  06
0068:  BSF    03.5
0069:  BCF    08.3
006A:  BCF    03.5
006B:  BCF    08.3
006C:  MOVLW  01
006D:  MOVWF  44
006E:  CALL   018
006F:  BSF    03.5
0070:  BCF    08.3
0071:  BCF    03.5
0072:  BSF    08.3
....................                    OUTPUT_B(B3);   OUTPUT_LOW(PIN_D4);     DELAY_MS(1);      OUTPUT_HIGH(PIN_D4); 
0073:  BSF    03.5
0074:  CLRF   06
0075:  BCF    03.5
0076:  MOVF   3D,W
0077:  MOVWF  06
0078:  BSF    03.5
0079:  BCF    08.4
007A:  BCF    03.5
007B:  BCF    08.4
007C:  MOVLW  01
007D:  MOVWF  44
007E:  CALL   018
007F:  BSF    03.5
0080:  BCF    08.4
0081:  BCF    03.5
0082:  BSF    08.4
....................                    OUTPUT_B(B2);   OUTPUT_LOW(PIN_D5);     DELAY_MS(1);      OUTPUT_HIGH(PIN_D5); 
0083:  BSF    03.5
0084:  CLRF   06
0085:  BCF    03.5
0086:  MOVF   3C,W
0087:  MOVWF  06
0088:  BSF    03.5
0089:  BCF    08.5
008A:  BCF    03.5
008B:  BCF    08.5
008C:  MOVLW  01
008D:  MOVWF  44
008E:  CALL   018
008F:  BSF    03.5
0090:  BCF    08.5
0091:  BCF    03.5
0092:  BSF    08.5
....................                    OUTPUT_B(B1);   OUTPUT_LOW(PIN_D6);     DELAY_MS(1);      OUTPUT_HIGH(PIN_D6); 
0093:  BSF    03.5
0094:  CLRF   06
0095:  BCF    03.5
0096:  MOVF   3B,W
0097:  MOVWF  06
0098:  BSF    03.5
0099:  BCF    08.6
009A:  BCF    03.5
009B:  BCF    08.6
009C:  MOVLW  01
009D:  MOVWF  44
009E:  CALL   018
009F:  BSF    03.5
00A0:  BCF    08.6
00A1:  BCF    03.5
00A2:  BSF    08.6
....................                    OUTPUT_B(B0);   OUTPUT_LOW(PIN_D7);     DELAY_MS(1);      OUTPUT_HIGH(PIN_D7);    
00A3:  BSF    03.5
00A4:  CLRF   06
00A5:  BCF    03.5
00A6:  MOVF   42,W
00A7:  MOVWF  06
00A8:  BSF    03.5
00A9:  BCF    08.7
00AA:  BCF    03.5
00AB:  BCF    08.7
00AC:  MOVLW  01
00AD:  MOVWF  44
00AE:  CALL   018
00AF:  BSF    03.5
00B0:  BCF    08.7
00B1:  BCF    03.5
00B2:  BSF    08.7
00B3:  INCF   3A,F
00B4:  GOTO   02D
....................             } 
00B5:  RETURN
.................... } 
....................  
.................... VOID HIENTHI_NHAY() 
.................... { 
....................    FOR(L=0;L<20;L++) 
*
00F1:  CLRF   3A
00F2:  BTFSC  3A.7
00F3:  GOTO   0F8
00F4:  MOVF   3A,W
00F5:  SUBLW  13
00F6:  BTFSS  03.0
00F7:  GOTO   14A
....................             { 
....................                 
....................                    OUTPUT_B(0x89);   OUTPUT_LOW(PIN_D1);     DELAY_MS(1);      OUTPUT_HIGH(PIN_D1); 
00F8:  BSF    03.5
00F9:  CLRF   06
00FA:  MOVLW  89
00FB:  BCF    03.5
00FC:  MOVWF  06
00FD:  BSF    03.5
00FE:  BCF    08.1
00FF:  BCF    03.5
0100:  BCF    08.1
0101:  MOVLW  01
0102:  MOVWF  44
0103:  CALL   018
0104:  BSF    03.5
0105:  BCF    08.1
0106:  BCF    03.5
0107:  BSF    08.1
....................                    OUTPUT_B(0x86);   OUTPUT_LOW(PIN_D2);     DELAY_MS(1);      OUTPUT_HIGH(PIN_D2); 
0108:  BSF    03.5
0109:  CLRF   06
010A:  MOVLW  86
010B:  BCF    03.5
010C:  MOVWF  06
010D:  BSF    03.5
010E:  BCF    08.2
010F:  BCF    03.5
0110:  BCF    08.2
0111:  MOVLW  01
0112:  MOVWF  44
0113:  CALL   018
0114:  BSF    03.5
0115:  BCF    08.2
0116:  BCF    03.5
0117:  BSF    08.2
....................                    OUTPUT_B(0xc7);   OUTPUT_LOW(PIN_D3);     DELAY_MS(1);      OUTPUT_HIGH(PIN_D3); 
0118:  BSF    03.5
0119:  CLRF   06
011A:  MOVLW  C7
011B:  BCF    03.5
011C:  MOVWF  06
011D:  BSF    03.5
011E:  BCF    08.3
011F:  BCF    03.5
0120:  BCF    08.3
0121:  MOVLW  01
0122:  MOVWF  44
0123:  CALL   018
0124:  BSF    03.5
0125:  BCF    08.3
0126:  BCF    03.5
0127:  BSF    08.3
....................                    OUTPUT_B(0xc7);   OUTPUT_LOW(PIN_D4);     DELAY_MS(1);      OUTPUT_HIGH(PIN_D4); 
0128:  BSF    03.5
0129:  CLRF   06
012A:  MOVLW  C7
012B:  BCF    03.5
012C:  MOVWF  06
012D:  BSF    03.5
012E:  BCF    08.4
012F:  BCF    03.5
0130:  BCF    08.4
0131:  MOVLW  01
0132:  MOVWF  44
0133:  CALL   018
0134:  BSF    03.5
0135:  BCF    08.4
0136:  BCF    03.5
0137:  BSF    08.4
....................                    OUTPUT_B(0XC0);   OUTPUT_LOW(PIN_D5);     DELAY_MS(1);      OUTPUT_HIGH(PIN_D5); 
0138:  BSF    03.5
0139:  CLRF   06
013A:  MOVLW  C0
013B:  BCF    03.5
013C:  MOVWF  06
013D:  BSF    03.5
013E:  BCF    08.5
013F:  BCF    03.5
0140:  BCF    08.5
0141:  MOVLW  01
0142:  MOVWF  44
0143:  CALL   018
0144:  BSF    03.5
0145:  BCF    08.5
0146:  BCF    03.5
0147:  BSF    08.5
0148:  INCF   3A,F
0149:  GOTO   0F2
....................             } 
014A:  BCF    0A.3
014B:  BCF    0A.4
014C:  GOTO   1F5 (RETURN)
.................... } 
....................  
.................... VOID HIENTHI_DEM() 
.................... { 
....................    FOR(L=0;L<100;L++) 
*
0172:  CLRF   3A
0173:  BTFSC  3A.7
0174:  GOTO   179
0175:  MOVF   3A,W
0176:  SUBLW  63
0177:  BTFSS  03.0
0178:  GOTO   1AB
....................             { 
....................                    OUTPUT_B(MA7DOAN[I/10]);   OUTPUT_LOW(PIN_D6);     DELAY_MS(1);      OUTPUT_HIGH(PIN_D6); 
0179:  MOVF   38,W
017A:  MOVWF  43
017B:  MOVLW  0A
017C:  MOVWF  44
017D:  CALL   14D
017E:  MOVF   78,W
017F:  CALL   004
0180:  MOVWF  43
0181:  BSF    03.5
0182:  CLRF   06
0183:  BCF    03.5
0184:  MOVF   43,W
0185:  MOVWF  06
0186:  BSF    03.5
0187:  BCF    08.6
0188:  BCF    03.5
0189:  BCF    08.6
018A:  MOVLW  01
018B:  MOVWF  44
018C:  CALL   018
018D:  BSF    03.5
018E:  BCF    08.6
018F:  BCF    03.5
0190:  BSF    08.6
....................                    OUTPUT_B(MA7DOAN[I%10]);   OUTPUT_LOW(PIN_D7);     DELAY_MS(1);      OUTPUT_HIGH(PIN_D7);   
0191:  MOVF   38,W
0192:  MOVWF  43
0193:  MOVLW  0A
0194:  MOVWF  44
0195:  CALL   14D
0196:  MOVF   77,W
0197:  CALL   004
0198:  MOVWF  43
0199:  BSF    03.5
019A:  CLRF   06
019B:  BCF    03.5
019C:  MOVF   43,W
019D:  MOVWF  06
019E:  BSF    03.5
019F:  BCF    08.7
01A0:  BCF    03.5
01A1:  BCF    08.7
01A2:  MOVLW  01
01A3:  MOVWF  44
01A4:  CALL   018
01A5:  BSF    03.5
01A6:  BCF    08.7
01A7:  BCF    03.5
01A8:  BSF    08.7
01A9:  INCF   3A,F
01AA:  GOTO   173
....................             } 
01AB:  BCF    0A.3
01AC:  BCF    0A.4
01AD:  GOTO   206 (RETURN)
.................... } 
....................  
.................... VOID DICH_LED7() 
.................... { 
....................    FOR(K=7;K>0;K--) 
*
00B6:  MOVLW  07
00B7:  MOVWF  39
00B8:  BTFSC  39.7
00B9:  GOTO   0D5
00BA:  MOVF   39,W
00BB:  SUBLW  00
00BC:  BTFSC  03.0
00BD:  GOTO   0D5
....................    { 
....................       LED7[K] = LED7[K-1]; 
00BE:  MOVLW  28
00BF:  ADDWF  39,W
00C0:  MOVWF  78
00C1:  CLRF   7A
00C2:  BTFSC  03.0
00C3:  INCF   7A,F
00C4:  MOVLW  01
00C5:  SUBWF  39,W
00C6:  ADDLW  28
00C7:  MOVWF  04
00C8:  BCF    03.7
00C9:  MOVF   00,W
00CA:  MOVWF  45
00CB:  MOVF   78,W
00CC:  MOVWF  04
00CD:  BCF    03.7
00CE:  BTFSC  7A.0
00CF:  BSF    03.7
00D0:  MOVF   45,W
00D1:  MOVWF  00
....................       HIENTHI(); 
00D2:  CALL   02C
00D3:  DECF   39,F
00D4:  GOTO   0B8
....................    } 
....................    LED7[0] = hello[I]; 
00D5:  MOVLW  20
00D6:  ADDWF  38,W
00D7:  MOVWF  04
00D8:  BCF    03.7
00D9:  MOVF   00,W
00DA:  MOVWF  28
00DB:  BCF    0A.3
00DC:  BCF    0A.4
00DD:  GOTO   1E9 (RETURN)
....................     
.................... } 
....................  
....................  
....................           
.................... VOID MAIN() 
*
01AE:  MOVF   03,W
01AF:  ANDLW  1F
01B0:  MOVWF  03
01B1:  BSF    03.5
01B2:  BSF    03.6
01B3:  MOVF   09,W
01B4:  ANDLW  C0
01B5:  MOVWF  09
01B6:  BCF    03.6
01B7:  BCF    1F.4
01B8:  BCF    1F.5
01B9:  MOVLW  00
01BA:  BSF    03.6
01BB:  MOVWF  08
01BC:  BCF    03.5
01BD:  CLRF   07
01BE:  CLRF   08
01BF:  CLRF   09
01C0:  BCF    03.7
.................... { 
....................  
....................    HIENTHI(); 
*
01DF:  CALL   02C
....................    I=0; 
01E0:  CLRF   38
....................    WHILE(TRUE) 
....................    { 
.................... //!      IF(I<16) 
.................... //!      { 
.................... //!         DICH_LED7(); 
.................... //!    //     HIENTHI(); 
.................... //!         GIAI_MA(); 
.................... //!      } 
.................... //!      ELSE IF(I<32) 
.................... //!      { 
.................... //!         DICH_LED7_NGUOC(); 
.................... //!         XUAT_4LED_7DOAN_4SO(LED7[3],LED7[2],LED7[1],LED7[0]); 
.................... //!         DELAY_MS(300); 
.................... //!      } 
....................        
.................... //!      ELSE 
.................... //!      { 
.................... //!         I=0; 
.................... //!      } 
.................... //!      I++; 
....................       FOR(I=0;I<13;I++) 
01E1:  CLRF   38
01E2:  BTFSC  38.7
01E3:  GOTO   1E8
01E4:  MOVF   38,W
01E5:  SUBLW  0C
01E6:  BTFSS  03.0
01E7:  GOTO   1ED
....................       { 
....................          DICH_LED7(); 
01E8:  GOTO   0B6
....................          GIAI_MA(); 
01E9:  GOTO   0DE
....................          HIENTHI(); 
01EA:  CALL   02C
01EB:  INCF   38,F
01EC:  GOTO   1E2
....................       } 
....................        
....................       FOR(I=0;I<3;I++) 
01ED:  CLRF   38
01EE:  BTFSC  38.7
01EF:  GOTO   1F4
01F0:  MOVF   38,W
01F1:  SUBLW  02
01F2:  BTFSS  03.0
01F3:  GOTO   1FE
....................       { 
....................          HIENTHI_NHAY(); 
01F4:  GOTO   0F1
....................          DELAY_MS(500); 
01F5:  MOVLW  02
01F6:  MOVWF  43
01F7:  MOVLW  FA
01F8:  MOVWF  44
01F9:  CALL   018
01FA:  DECFSZ 43,F
01FB:  GOTO   1F7
01FC:  INCF   38,F
01FD:  GOTO   1EE
....................       } 
....................        
....................       FOR(I=0;I<60;I++) 
01FE:  CLRF   38
01FF:  BTFSC  38.7
0200:  GOTO   205
0201:  MOVF   38,W
0202:  SUBLW  3B
0203:  BTFSS  03.0
0204:  GOTO   208
....................       { 
....................          HIENTHI_DEM(); 
0205:  GOTO   172
0206:  INCF   38,F
0207:  GOTO   1FF
....................           
....................       } 
0208:  GOTO   1E1
.................... //!       
.................... //!      FOR(I=0;I<8;I++) 
.................... //!      { 
.................... //!         DICH_LED7_NGUOC(); 
.................... //!         XUAT_4LED_7DOAN_4SO(LED7[3],LED7[2],LED7[1],LED7[0]); 
.................... //!         DELAY_MS(1000); 
.................... //!      } 
....................  
....................           
....................    } 
....................     
.................... } 
0209:  SLEEP

Configuration Fuses:
   Word  1: 2FE2   HS NOWDT PUT MCLR NOPROTECT NOCPD BROWNOUT IESO FCMEN NOLVP NODEBUG
   Word  2: 3FFF   BORV40 NOWRT
