:1000000000308A00942800000A108A100A11820722
:10001000C034F934A434B034993492348234F8348E
:100020008034903488348334C634A13486348E349A
:10003000F801F901F701FA012B08031D22282A080B
:1000400003193C281030AC000310A80DA90DF70DC2
:10005000FA0D2B087A02031D2F282A087702031CA9
:1000600038282A08F702031CFA032B08FA020314A3
:10007000F80DF90DAC0B24280800263084008313FA
:100080000008031950280630F800F701F70B46283E
:10009000F80B45287B30F700F70B4C28800B4328E2
:1000A000080083168601831223088600831608122F
:1000B000831208120130A6003D2083160812831215
:1000C000081683168601831222088600831688127A
:1000D000831288120130A6003D20831688128312F5
:1000E000881683168601831221088600831608135A
:1000F000831208130130A6003D20831608138312D3
:100100000817831686018312200886008316881339
:10011000831288130130A6003D20831688138312B2
:1001200088178A110A122F2903081F3983008316A2
:1001300003170908C039890003131F129F120030EA
:100140000317880083128701880189018313003017
:1001500083160313880086000730831290008E01F7
:100160008F018E010F08FA000E08F7000F087A02BF
:10017000031DB2287708A4007A08A5002508A90065
:100180002408A800AB010A30AA0018207708A600AE
:100190007A08A700FA0077080420F800A0002508D4
:1001A000A9002408A800AB010A30AA001820790889
:1001B000A7007808A6007908A9007808A800AB0174
:1001C0000A30AA0018207708A6007A08A700FA00CB
:1001D00077080420F800A1002508A9002408A80039
:1001E000AB016430AA0018207908A7007808A6009F
:1001F0007908A9007808A800AB010A30AA001820E5
:100200007708A6007A08A700FA0077080420F8000B
:10021000A2002508A9002408A8000330AB00E8309C
:10022000AA0018207908A7007808A6007908FA0023
:1002300078080420F800A3002308C03C031D2E29E1
:10024000FF30A3002208C03C031D2E29FF30A2006E
:100250002108C03C031D2E29FF30A100512824088D
:10026000B03C031D3B292508043C031D3B298E019E
:0A0270008F0101308E00B2286300F8
:04400E00E22FFF3F5F
:00000001FF
;PIC16F887
;CRC=DA9C  CREATED="17-Thg9-16 08:14"
