:1000000001308A00902900000A108A100A11820724
:10001000C034F934A434B034993492348234F8348E
:100020008034903488348334C634A13486348E349A
:10003000233084008313000803192B280630F800AE
:10004000F701F70B2128F80B20287B30F700F70B7E
:100050002728800B1E288A110A12D829F801F901D5
:10006000F701FA012908031D382828080319522826
:100070001030AA000310A60DA70DF70DFA0D2908E0
:100080007A02031D452828087702031C4E282808F9
:10009000F702031CFA032908FA020314F80DF90DFC
:1000A000AA0B3A2808008E30F7002608F800250829
:1000B000F900FA01F808031D67287908F800F9012A
:1000C0000830F702F808031D6728F7016F280310AE
:1000D000F81B6E28F90DF80DF7036728F8138A113D
:1000E0000A12EB29250803193729B1002908031939
:1000F0003729B102031C81287F30B1070318372943
:1001000087288130B102031C3729031937293108A8
:10011000F700F801F901FA01B0012608AF00AF17A6
:100120002708AE002808AD001930B1002C08AD0238
:100130000318AA280130AE020318AA28AF02031838
:10014000AA28B0020318AA28B00AAF0AAE0A2C08DF
:10015000AD07DC282B08AE020318C5280130AF021A
:100160000318C528B0020318C528B00AAF0A2B0827
:10017000AE072C08AD07031CDC28AE0A031DDC28E3
:10018000AF0A031DDC28B00ADC282A088038AF0239
:100190000318DB280130B0020318DB28B00A2A0854
:1001A0008038AF072B08AE07031CB928AF0A031D20
:1001B000B928B00AB9287A14B10BDF28EA2803104D
:1001C000AD0DAE0DAF0DB00D0310FA0DF90DF80D1C
:1001D000B20D9628321CF2280310F80CF90CFA0C18
:1001E000B20CF528F70303193729B21B1E29031097
:1001F000AD0DAE0DAF0DB00D2C08AD0203180A29E0
:100200000130AE0203180A29AF0203180A29B0020E
:10021000031C2D292B08AE02031815290130AF024B
:1002200003181529B002031C2D292A088038AF02B3
:1002300003181E290130B002031C2D29FA0A031DE0
:100240002D29F90A031D2D29F80A031D2D29F70A66
:1002500003193729F80CF90CFA0C2608B1002A0802
:10026000B106B11F3529F8173B29F8133B29F701CF
:10027000F801F901FA018A110A12FC298E30F700FF
:100280002308F7022408F9002508F800F917F708F1
:10029000031955290310F908031D5129F8080319FA
:1002A0005529F90CF80CF70B4A29A41F5C29F80909
:1002B000F909F80A0319F90A8A110A12052A2D0800
:1002C000AF00AE012E08073C031C7829AF1B6A293A
:1002D00008116B29081583160811881083128810DD
:1002E00083168810831288140310AF0DAE0A62299A
:1002F00008002C08AD005F212B08AD005F212A0803
:10030000AD005F212908AD005F218316881183129B
:10031000881183168811831288158A110A12322ACD
:1003200003081F398300831603170908C0398900A1
:1003300003131F129F1200300317880083128701D6
:10034000880189018313003083160313880001306C
:10035000850083121F139F1783169F1783121F1484
:10036000831603170908C039890003131F129F124F
:100370000130031788000030F800831203131F08B0
:10038000C33978049F00A201A101A0012008633CA9
:10039000031CDA299F149F18CB2983161E08831289
:1003A000A1071E0803181E0FA2070130A30018287A
:1003B000A00AC6292208A7002108A600A9016430C6
:1003C000A8002E207908A4007808A3007908A600C8
:1003D0007808A50053287A08A8007908A7007808AB
:1003E000A6007708A500AA30AC00F130AB000230BF
:1003F000AA008030A90072287A08A6007908A50012
:100400007808A4007708A3003E297908A20078089C
:10041000A1002208A7002108A600A9010A30A8000F
:100420002E207908A4007808A3002408FA002308E5
:100430000420A5002208A7002108A600A9010A306F
:10044000A8002E207708A6007A08A700FA00260840
:100450000420A800FF30A900AA002508AB00280846
:08046000AC007929C3296300F7
:04400E00E22FFF3F5F
:00000001FF
;PIC16F887
;CRC=57C4  CREATED="27-Thg9-16 19:19"
